8=FIX.4.4|9=000117|35=A|49=init-comp|56=accept-comp|34=1|57=fix|52=20241012-13:00:44.225|98=0|108=30|141=Y|553=js-client|554=pwd-client|10=225|
8=FIX.4.4|9=0000117|35=A|49=accept-comp|56=init-comp|34=1|57=fix|52=20241012-13:00:44.231|98=0|108=30|141=Y|553=js-server|554=pwd-server|10=062|
8=FIX.4.4|9=0000104|35=0|49=accept-comp|56=init-comp|34=2|57=fix|52=20241012-13:01:14.077|112=heartbeat-10/12/2024 13:01:14|10=218|
8=FIX.4.4|9=000104|35=0|49=init-comp|56=accept-comp|34=2|57=fix|52=20241012-13:01:14.094|112=heartbeat-10/12/2024 13:01:14|10=169|
8=FIX.4.4|9=0000104|35=0|49=accept-comp|56=init-comp|34=3|57=fix|52=20241012-13:01:44.061|112=heartbeat-10/12/2024 13:01:44|10=218|
8=FIX.4.4|9=000104|35=0|49=init-comp|56=accept-comp|34=3|57=fix|52=20241012-13:01:44.078|112=heartbeat-10/12/2024 13:01:44|10=178|
8=FIX.4.4|9=0000104|35=0|49=accept-comp|56=init-comp|34=4|57=fix|52=20241012-13:02:14.045|112=heartbeat-10/12/2024 13:02:14|10=217|
8=FIX.4.4|9=000104|35=0|49=init-comp|56=accept-comp|34=4|57=fix|52=20241012-13:02:14.080|112=heartbeat-10/12/2024 13:02:14|10=168|
8=FIX.4.4|9=0000104|35=0|49=accept-comp|56=init-comp|34=5|57=fix|52=20241012-13:02:44.039|112=heartbeat-10/12/2024 13:02:44|10=227|
8=FIX.4.4|9=000104|35=0|49=init-comp|56=accept-comp|34=5|57=fix|52=20241012-13:02:44.056|112=heartbeat-10/12/2024 13:02:44|10=178|
8=FIX.4.4|9=0000104|35=0|49=accept-comp|56=init-comp|34=6|57=fix|52=20241012-13:03:14.009|112=heartbeat-10/12/2024 13:03:14|10=221|
8=FIX.4.4|9=000104|35=0|49=init-comp|56=accept-comp|34=6|57=fix|52=20241012-13:03:14.029|112=heartbeat-10/12/2024 13:03:14|10=175|
8=FIX.4.4|9=0000104|35=0|49=accept-comp|56=init-comp|34=7|57=fix|52=20241012-13:03:44.060|112=heartbeat-10/12/2024 13:03:44|10=225|
8=FIX.4.4|9=000104|35=0|49=init-comp|56=accept-comp|34=7|57=fix|52=20241012-13:03:44.074|112=heartbeat-10/12/2024 13:03:44|10=182|
8=FIX.4.4|9=000104|35=0|49=init-comp|56=accept-comp|34=8|57=fix|52=20241012-13:04:14.025|112=heartbeat-10/12/2024 13:04:14|10=175|
8=FIX.4.4|9=0000104|35=0|49=accept-comp|56=init-comp|34=8|57=fix|52=20241012-13:04:14.101|112=heartbeat-10/12/2024 13:04:14|10=218|
8=FIX.4.4|9=0000104|35=0|49=accept-comp|56=init-comp|34=9|57=fix|52=20241012-13:04:44.017|112=heartbeat-10/12/2024 13:04:44|10=231|
8=FIX.4.4|9=000104|35=0|49=init-comp|56=accept-comp|34=9|57=fix|52=20241012-13:04:44.052|112=heartbeat-10/12/2024 13:04:44|10=182|
8=FIX.4.4|9=0000105|35=0|49=accept-comp|56=init-comp|34=10|57=fix|52=20241012-13:05:14.049|112=heartbeat-10/12/2024 13:05:14|10=017|
8=FIX.4.4|9=000105|35=0|49=init-comp|56=accept-comp|34=10|57=fix|52=20241012-13:05:14.070|112=heartbeat-10/12/2024 13:05:14|10=219|
8=FIX.4.4|9=000105|35=0|49=init-comp|56=accept-comp|34=11|57=fix|52=20241012-13:05:44.009|112=heartbeat-10/12/2024 13:05:44|10=228|
8=FIX.4.4|9=0000105|35=0|49=accept-comp|56=init-comp|34=11|57=fix|52=20241012-13:05:44.092|112=heartbeat-10/12/2024 13:05:44|10=022|
8=FIX.4.4|9=0000105|35=0|49=accept-comp|56=init-comp|34=12|57=fix|52=20241012-13:06:14.039|112=heartbeat-10/12/2024 13:06:14|10=020|
8=FIX.4.4|9=000105|35=0|49=init-comp|56=accept-comp|34=12|57=fix|52=20241012-13:06:14.060|112=heartbeat-10/12/2024 13:06:14|10=222|
8=FIX.4.4|9=0000105|35=0|49=accept-comp|56=init-comp|34=13|57=fix|52=20241012-13:06:44.074|112=heartbeat-10/12/2024 13:06:44|10=026|
8=FIX.4.4|9=000105|35=0|49=init-comp|56=accept-comp|34=13|57=fix|52=20241012-13:06:44.101|112=heartbeat-10/12/2024 13:06:44|10=225|
8=FIX.4.4|9=000105|35=0|49=init-comp|56=accept-comp|34=14|57=fix|52=20241012-13:07:14.006|112=heartbeat-10/12/2024 13:07:14|10=226|
8=FIX.4.4|9=0000105|35=0|49=accept-comp|56=init-comp|34=14|57=fix|52=20241012-13:07:14.079|112=heartbeat-10/12/2024 13:07:14|10=028|
8=FIX.4.4|9=0000105|35=0|49=accept-comp|56=init-comp|34=15|57=fix|52=20241012-13:07:44.015|112=heartbeat-10/12/2024 13:07:44|10=025|
8=FIX.4.4|9=000105|35=0|49=init-comp|56=accept-comp|34=15|57=fix|52=20241012-13:07:44.035|112=heartbeat-10/12/2024 13:07:44|10=235|
8=FIX.4.4|9=000105|35=0|49=init-comp|56=accept-comp|34=16|57=fix|52=20241012-13:08:14.021|112=heartbeat-10/12/2024 13:08:14|10=227|
8=FIX.4.4|9=0000105|35=0|49=accept-comp|56=init-comp|34=16|57=fix|52=20241012-13:08:14.098|112=heartbeat-10/12/2024 13:08:14|10=033|
8=FIX.4.4|9=0000105|35=0|49=accept-comp|56=init-comp|34=17|57=fix|52=20241012-13:08:44.055|112=heartbeat-10/12/2024 13:08:44|10=033|
8=FIX.4.4|9=000105|35=0|49=init-comp|56=accept-comp|34=17|57=fix|52=20241012-13:08:44.072|112=heartbeat-10/12/2024 13:08:44|10=240|
8=FIX.4.4|9=0000105|35=0|49=accept-comp|56=init-comp|34=18|57=fix|52=20241012-13:09:14.058|112=heartbeat-10/12/2024 13:09:14|10=033|
8=FIX.4.4|9=000105|35=0|49=init-comp|56=accept-comp|34=18|57=fix|52=20241012-13:09:14.078|112=heartbeat-10/12/2024 13:09:14|10=243|
8=FIX.4.4|9=0000105|35=0|49=accept-comp|56=init-comp|34=19|57=fix|52=20241012-13:09:44.066|112=heartbeat-10/12/2024 13:09:44|10=039|
8=FIX.4.4|9=000105|35=0|49=init-comp|56=accept-comp|34=19|57=fix|52=20241012-13:09:44.079|112=heartbeat-10/12/2024 13:09:44|10=251|
8=FIX.4.4|9=0000105|35=0|49=accept-comp|56=init-comp|34=20|57=fix|52=20241012-13:10:14.030|112=heartbeat-10/12/2024 13:10:14|10=000|
8=FIX.4.4|9=000105|35=0|49=init-comp|56=accept-comp|34=20|57=fix|52=20241012-13:10:14.058|112=heartbeat-10/12/2024 13:10:14|10=218|
8=FIX.4.4|9=0000105|35=0|49=accept-comp|56=init-comp|34=21|57=fix|52=20241012-13:10:44.031|112=heartbeat-10/12/2024 13:10:44|10=008|
8=FIX.4.4|9=000105|35=0|49=init-comp|56=accept-comp|34=21|57=fix|52=20241012-13:10:44.060|112=heartbeat-10/12/2024 13:10:44|10=218|
8=FIX.4.4|9=0000105|35=0|49=accept-comp|56=init-comp|34=22|57=fix|52=20241012-13:11:14.074|112=heartbeat-10/12/2024 13:11:14|10=012|
8=FIX.4.4|9=000105|35=0|49=init-comp|56=accept-comp|34=22|57=fix|52=20241012-13:11:14.094|112=heartbeat-10/12/2024 13:11:14|10=222|
8=FIX.4.4|9=0000105|35=0|49=accept-comp|56=init-comp|34=23|57=fix|52=20241012-13:11:44.008|112=heartbeat-10/12/2024 13:11:44|10=016|
8=FIX.4.4|9=000105|35=0|49=init-comp|56=accept-comp|34=23|57=fix|52=20241012-13:11:44.037|112=heartbeat-10/12/2024 13:11:44|10=226|
8=FIX.4.4|9=0000105|35=0|49=accept-comp|56=init-comp|34=24|57=fix|52=20241012-13:12:14.022|112=heartbeat-10/12/2024 13:12:14|10=009|
8=FIX.4.4|9=000105|35=0|49=init-comp|56=accept-comp|34=24|57=fix|52=20241012-13:12:14.057|112=heartbeat-10/12/2024 13:12:14|10=225|
8=FIX.4.4|9=0000105|35=0|49=accept-comp|56=init-comp|34=25|57=fix|52=20241012-13:12:44.073|112=heartbeat-10/12/2024 13:12:44|10=022|
8=FIX.4.4|9=000105|35=0|49=init-comp|56=accept-comp|34=25|57=fix|52=20241012-13:12:44.091|112=heartbeat-10/12/2024 13:12:44|10=230|
8=FIX.4.4|9=0000105|35=0|49=accept-comp|56=init-comp|34=26|57=fix|52=20241012-13:13:14.021|112=heartbeat-10/12/2024 13:13:14|10=012|
8=FIX.4.4|9=000105|35=0|49=init-comp|56=accept-comp|34=26|57=fix|52=20241012-13:13:14.047|112=heartbeat-10/12/2024 13:13:14|10=228|
8=FIX.4.4|9=0000105|35=0|49=accept-comp|56=init-comp|34=27|57=fix|52=20241012-13:13:44.070|112=heartbeat-10/12/2024 13:13:44|10=023|
8=FIX.4.4|9=000105|35=0|49=init-comp|56=accept-comp|34=27|57=fix|52=20241012-13:13:44.089|112=heartbeat-10/12/2024 13:13:44|10=241|
8=FIX.4.4|9=0000105|35=0|49=accept-comp|56=init-comp|34=28|57=fix|52=20241012-13:14:14.011|112=heartbeat-10/12/2024 13:14:14|10=015|
8=FIX.4.4|9=000105|35=0|49=init-comp|56=accept-comp|34=28|57=fix|52=20241012-13:14:14.033|112=heartbeat-10/12/2024 13:14:14|10=227|
8=FIX.4.4|9=0000105|35=0|49=accept-comp|56=init-comp|34=29|57=fix|52=20241012-13:14:44.015|112=heartbeat-10/12/2024 13:14:44|10=026|
8=FIX.4.4|9=000105|35=0|49=init-comp|56=accept-comp|34=29|57=fix|52=20241012-13:14:44.035|112=heartbeat-10/12/2024 13:14:44|10=236|
8=FIX.4.4|9=0000105|35=0|49=accept-comp|56=init-comp|34=30|57=fix|52=20241012-13:15:14.045|112=heartbeat-10/12/2024 13:15:14|10=017|
8=FIX.4.4|9=000105|35=0|49=init-comp|56=accept-comp|34=30|57=fix|52=20241012-13:15:14.063|112=heartbeat-10/12/2024 13:15:14|10=225|
8=FIX.4.4|9=0000105|35=0|49=accept-comp|56=init-comp|34=31|57=fix|52=20241012-13:15:44.075|112=heartbeat-10/12/2024 13:15:44|10=027|
8=FIX.4.4|9=000105|35=0|49=init-comp|56=accept-comp|34=31|57=fix|52=20241012-13:15:44.102|112=heartbeat-10/12/2024 13:15:44|10=226|
8=FIX.4.4|9=000105|35=0|49=init-comp|56=accept-comp|34=32|57=fix|52=20241012-13:16:14.019|112=heartbeat-10/12/2024 13:16:14|10=230|
8=FIX.4.4|9=0000105|35=0|49=accept-comp|56=init-comp|34=32|57=fix|52=20241012-13:16:14.088|112=heartbeat-10/12/2024 13:16:14|10=028|
8=FIX.4.4|9=000105|35=0|49=init-comp|56=accept-comp|34=33|57=fix|52=20241012-13:16:44.012|112=heartbeat-10/12/2024 13:16:44|10=230|
8=FIX.4.4|9=0000105|35=0|49=accept-comp|56=init-comp|34=33|57=fix|52=20241012-13:16:44.095|112=heartbeat-10/12/2024 13:16:44|10=033|
8=FIX.4.4|9=000105|35=0|49=init-comp|56=accept-comp|34=34|57=fix|52=20241012-13:17:14.019|112=heartbeat-10/12/2024 13:17:14|10=234|
8=FIX.4.4|9=0000105|35=0|49=accept-comp|56=init-comp|34=34|57=fix|52=20241012-13:17:14.092|112=heartbeat-10/12/2024 13:17:14|10=027|
8=FIX.4.4|9=000105|35=0|49=init-comp|56=accept-comp|34=35|57=fix|52=20241012-13:17:44.010|112=heartbeat-10/12/2024 13:17:44|10=232|
8=FIX.4.4|9=0000105|35=0|49=accept-comp|56=init-comp|34=35|57=fix|52=20241012-13:17:44.077|112=heartbeat-10/12/2024 13:17:44|10=037|
8=FIX.4.4|9=0000105|35=0|49=accept-comp|56=init-comp|34=36|57=fix|52=20241012-13:18:14.064|112=heartbeat-10/12/2024 13:18:14|10=030|
8=FIX.4.4|9=000105|35=0|49=init-comp|56=accept-comp|34=36|57=fix|52=20241012-13:18:14.087|112=heartbeat-10/12/2024 13:18:14|10=243|
8=FIX.4.4|9=000105|35=0|49=init-comp|56=accept-comp|34=37|57=fix|52=20241012-13:18:44.011|112=heartbeat-10/12/2024 13:18:44|10=237|
8=FIX.4.4|9=0000105|35=0|49=accept-comp|56=init-comp|34=37|57=fix|52=20241012-13:18:44.090|112=heartbeat-10/12/2024 13:18:44|10=036|
8=FIX.4.4|9=0000105|35=0|49=accept-comp|56=init-comp|34=38|57=fix|52=20241012-13:19:14.019|112=heartbeat-10/12/2024 13:19:14|10=034|
8=FIX.4.4|9=000105|35=0|49=init-comp|56=accept-comp|34=38|57=fix|52=20241012-13:19:14.040|112=heartbeat-10/12/2024 13:19:14|10=236|
8=FIX.4.4|9=0000105|35=0|49=accept-comp|56=init-comp|34=39|57=fix|52=20241012-13:19:44.013|112=heartbeat-10/12/2024 13:19:44|10=035|
8=FIX.4.4|9=000105|35=0|49=init-comp|56=accept-comp|34=39|57=fix|52=20241012-13:19:44.032|112=heartbeat-10/12/2024 13:19:44|10=244|
8=FIX.4.4|9=000105|35=0|49=init-comp|56=accept-comp|34=40|57=fix|52=20241012-13:20:14.006|112=heartbeat-10/12/2024 13:20:14|10=215|
8=FIX.4.4|9=0000105|35=0|49=accept-comp|56=init-comp|34=40|57=fix|52=20241012-13:20:14.085|112=heartbeat-10/12/2024 13:20:14|10=014|
8=FIX.4.4|9=0000105|35=0|49=accept-comp|56=init-comp|34=41|57=fix|52=20241012-13:20:44.061|112=heartbeat-10/12/2024 13:20:44|10=015|
8=FIX.4.4|9=000105|35=0|49=init-comp|56=accept-comp|34=41|57=fix|52=20241012-13:20:44.083|112=heartbeat-10/12/2024 13:20:44|10=227|
8=FIX.4.4|9=0000105|35=0|49=accept-comp|56=init-comp|34=42|57=fix|52=20241012-13:21:14.073|112=heartbeat-10/12/2024 13:21:14|10=015|
8=FIX.4.4|9=000105|35=0|49=init-comp|56=accept-comp|34=42|57=fix|52=20241012-13:21:14.094|112=heartbeat-10/12/2024 13:21:14|10=226|
8=FIX.4.4|9=0000105|35=0|49=accept-comp|56=init-comp|34=43|57=fix|52=20241012-13:21:44.057|112=heartbeat-10/12/2024 13:21:44|10=024|
8=FIX.4.4|9=000105|35=0|49=init-comp|56=accept-comp|34=43|57=fix|52=20241012-13:21:44.079|112=heartbeat-10/12/2024 13:21:44|10=236|
8=FIX.4.4|9=0000105|35=0|49=accept-comp|56=init-comp|34=44|57=fix|52=20241012-13:22:14.059|112=heartbeat-10/12/2024 13:22:14|10=023|
8=FIX.4.4|9=000105|35=0|49=init-comp|56=accept-comp|34=44|57=fix|52=20241012-13:22:14.077|112=heartbeat-10/12/2024 13:22:14|10=231|
8=FIX.4.4|9=0000105|35=0|49=accept-comp|56=init-comp|34=45|57=fix|52=20241012-13:22:44.037|112=heartbeat-10/12/2024 13:22:44|10=026|
8=FIX.4.4|9=000105|35=0|49=init-comp|56=accept-comp|34=45|57=fix|52=20241012-13:22:44.061|112=heartbeat-10/12/2024 13:22:44|10=231|
8=FIX.4.4|9=0000105|35=0|49=accept-comp|56=init-comp|34=46|57=fix|52=20241012-13:23:14.029|112=heartbeat-10/12/2024 13:23:14|10=024|
8=FIX.4.4|9=000105|35=0|49=init-comp|56=accept-comp|34=46|57=fix|52=20241012-13:23:14.055|112=heartbeat-10/12/2024 13:23:14|10=231|
8=FIX.4.4|9=0000105|35=0|49=accept-comp|56=init-comp|34=47|57=fix|52=20241012-13:23:44.005|112=heartbeat-10/12/2024 13:23:44|10=025|
8=FIX.4.4|9=000105|35=0|49=init-comp|56=accept-comp|34=47|57=fix|52=20241012-13:23:44.029|112=heartbeat-10/12/2024 13:23:44|10=239|
8=FIX.4.4|9=000105|35=0|49=init-comp|56=accept-comp|34=48|57=fix|52=20241012-13:24:14.011|112=heartbeat-10/12/2024 13:24:14|10=227|
8=FIX.4.4|9=0000105|35=0|49=accept-comp|56=init-comp|34=48|57=fix|52=20241012-13:24:14.095|112=heartbeat-10/12/2024 13:24:14|10=031|
8=FIX.4.4|9=000105|35=0|49=init-comp|56=accept-comp|34=49|57=fix|52=20241012-13:24:44.001|112=heartbeat-10/12/2024 13:24:44|10=233|
8=FIX.4.4|9=0000105|35=0|49=accept-comp|56=init-comp|34=49|57=fix|52=20241012-13:24:44.069|112=heartbeat-10/12/2024 13:24:44|10=039|
8=FIX.4.4|9=000105|35=0|49=init-comp|56=accept-comp|34=50|57=fix|52=20241012-13:25:14.002|112=heartbeat-10/12/2024 13:25:14|10=222|
8=FIX.4.4|9=0000105|35=0|49=accept-comp|56=init-comp|34=50|57=fix|52=20241012-13:25:14.079|112=heartbeat-10/12/2024 13:25:14|10=028|
8=FIX.4.4|9=0000105|35=0|49=accept-comp|56=init-comp|34=51|57=fix|52=20241012-13:25:44.071|112=heartbeat-10/12/2024 13:25:44|10=027|
8=FIX.4.4|9=000105|35=0|49=init-comp|56=accept-comp|34=51|57=fix|52=20241012-13:25:44.102|112=heartbeat-10/12/2024 13:25:44|10=230|
8=FIX.4.4|9=0000105|35=0|49=accept-comp|56=init-comp|34=52|57=fix|52=20241012-13:26:14.037|112=heartbeat-10/12/2024 13:26:14|10=026|
8=FIX.4.4|9=000105|35=0|49=init-comp|56=accept-comp|34=52|57=fix|52=20241012-13:26:14.060|112=heartbeat-10/12/2024 13:26:14|10=230|
8=FIX.4.4|9=0000105|35=0|49=accept-comp|56=init-comp|34=53|57=fix|52=20241012-13:26:44.007|112=heartbeat-10/12/2024 13:26:44|10=030|
8=FIX.4.4|9=000105|35=0|49=init-comp|56=accept-comp|34=53|57=fix|52=20241012-13:26:44.034|112=heartbeat-10/12/2024 13:26:44|10=238|
8=FIX.4.4|9=000105|35=0|49=init-comp|56=accept-comp|34=54|57=fix|52=20241012-13:27:14.001|112=heartbeat-10/12/2024 13:27:14|10=229|
8=FIX.4.4|9=0000105|35=0|49=accept-comp|56=init-comp|34=54|57=fix|52=20241012-13:27:14.085|112=heartbeat-10/12/2024 13:27:14|10=033|
8=FIX.4.4|9=0000105|35=0|49=accept-comp|56=init-comp|34=55|57=fix|52=20241012-13:27:44.025|112=heartbeat-10/12/2024 13:27:44|10=034|
8=FIX.4.4|9=000105|35=0|49=init-comp|56=accept-comp|34=55|57=fix|52=20241012-13:27:44.053|112=heartbeat-10/12/2024 13:27:44|10=243|
8=FIX.4.4|9=000105|35=0|49=init-comp|56=accept-comp|34=56|57=fix|52=20241012-13:28:14.020|112=heartbeat-10/12/2024 13:28:14|10=234|
8=FIX.4.4|9=0000105|35=0|49=accept-comp|56=init-comp|34=56|57=fix|52=20241012-13:28:14.103|112=heartbeat-10/12/2024 13:28:14|10=028|
8=FIX.4.4|9=0000105|35=0|49=accept-comp|56=init-comp|34=57|57=fix|52=20241012-13:28:44.067|112=heartbeat-10/12/2024 13:28:44|10=044|
8=FIX.4.4|9=000105|35=0|49=init-comp|56=accept-comp|34=57|57=fix|52=20241012-13:28:44.095|112=heartbeat-10/12/2024 13:28:44|10=253|
8=FIX.4.4|9=0000105|35=0|49=accept-comp|56=init-comp|34=58|57=fix|52=20241012-13:29:14.082|112=heartbeat-10/12/2024 13:29:14|10=038|
8=FIX.4.4|9=000105|35=0|49=init-comp|56=accept-comp|34=58|57=fix|52=20241012-13:29:14.100|112=heartbeat-10/12/2024 13:29:14|10=237|
8=FIX.4.4|9=0000105|35=0|49=accept-comp|56=init-comp|34=59|57=fix|52=20241012-13:29:44.034|112=heartbeat-10/12/2024 13:29:44|10=042|
8=FIX.4.4|9=000105|35=0|49=init-comp|56=accept-comp|34=59|57=fix|52=20241012-13:29:44.055|112=heartbeat-10/12/2024 13:29:44|10=253|
8=FIX.4.4|9=0000105|35=0|49=accept-comp|56=init-comp|34=60|57=fix|52=20241012-13:30:14.033|112=heartbeat-10/12/2024 13:30:14|10=011|
8=FIX.4.4|9=000105|35=0|49=init-comp|56=accept-comp|34=60|57=fix|52=20241012-13:30:14.052|112=heartbeat-10/12/2024 13:30:14|10=220|
8=FIX.4.4|9=0000105|35=0|49=accept-comp|56=init-comp|34=61|57=fix|52=20241012-13:30:44.005|112=heartbeat-10/12/2024 13:30:44|10=017|
8=FIX.4.4|9=000105|35=0|49=init-comp|56=accept-comp|34=61|57=fix|52=20241012-13:30:44.025|112=heartbeat-10/12/2024 13:30:44|10=227|
8=FIX.4.4|9=0000105|35=0|49=accept-comp|56=init-comp|34=62|57=fix|52=20241012-13:31:14.026|112=heartbeat-10/12/2024 13:31:14|10=017|
8=FIX.4.4|9=000105|35=0|49=init-comp|56=accept-comp|34=62|57=fix|52=20241012-13:31:14.056|112=heartbeat-10/12/2024 13:31:14|10=228|
8=FIX.4.4|9=0000105|35=0|49=accept-comp|56=init-comp|34=63|57=fix|52=20241012-13:31:44.029|112=heartbeat-10/12/2024 13:31:44|10=027|
8=FIX.4.4|9=000105|35=0|49=init-comp|56=accept-comp|34=63|57=fix|52=20241012-13:31:44.057|112=heartbeat-10/12/2024 13:31:44|10=236|
8=FIX.4.4|9=0000105|35=0|49=accept-comp|56=init-comp|34=64|57=fix|52=20241012-13:32:14.021|112=heartbeat-10/12/2024 13:32:14|10=016|
8=FIX.4.4|9=000105|35=0|49=init-comp|56=accept-comp|34=64|57=fix|52=20241012-13:32:14.046|112=heartbeat-10/12/2024 13:32:14|10=231|
8=FIX.4.4|9=0000105|35=0|49=accept-comp|56=init-comp|34=65|57=fix|52=20241012-13:32:44.001|112=heartbeat-10/12/2024 13:32:44|10=021|
8=FIX.4.4|9=000105|35=0|49=init-comp|56=accept-comp|34=65|57=fix|52=20241012-13:32:44.024|112=heartbeat-10/12/2024 13:32:44|10=234|
8=FIX.4.4|9=0000105|35=0|49=accept-comp|56=init-comp|34=66|57=fix|52=20241012-13:33:14.021|112=heartbeat-10/12/2024 13:33:14|10=020|
8=FIX.4.4|9=000105|35=0|49=init-comp|56=accept-comp|34=66|57=fix|52=20241012-13:33:14.042|112=heartbeat-10/12/2024 13:33:14|10=231|
8=FIX.4.4|9=0000105|35=0|49=accept-comp|56=init-comp|34=67|57=fix|52=20241012-13:33:44.079|112=heartbeat-10/12/2024 13:33:44|10=040|
8=FIX.4.4|9=000105|35=0|49=init-comp|56=accept-comp|34=67|57=fix|52=20241012-13:33:44.108|112=heartbeat-10/12/2024 13:33:44|10=241|
8=FIX.4.4|9=0000105|35=0|49=accept-comp|56=init-comp|34=68|57=fix|52=20241012-13:34:14.028|112=heartbeat-10/12/2024 13:34:14|10=031|
8=FIX.4.4|9=000105|35=0|49=init-comp|56=accept-comp|34=68|57=fix|52=20241012-13:34:14.048|112=heartbeat-10/12/2024 13:34:14|10=241|
8=FIX.4.4|9=0000105|35=0|49=accept-comp|56=init-comp|34=69|57=fix|52=20241012-13:34:44.064|112=heartbeat-10/12/2024 13:34:44|10=038|
8=FIX.4.4|9=000105|35=0|49=init-comp|56=accept-comp|34=69|57=fix|52=20241012-13:34:44.093|112=heartbeat-10/12/2024 13:34:44|10=248|
8=FIX.4.4|9=000105|35=0|49=init-comp|56=accept-comp|34=70|57=fix|52=20241012-13:35:14.008|112=heartbeat-10/12/2024 13:35:14|10=232|
8=FIX.4.4|9=0000105|35=0|49=accept-comp|56=init-comp|34=70|57=fix|52=20241012-13:35:14.087|112=heartbeat-10/12/2024 13:35:14|10=031|
8=FIX.4.4|9=000105|35=0|49=init-comp|56=accept-comp|34=71|57=fix|52=20241012-13:35:44.008|112=heartbeat-10/12/2024 13:35:44|10=239|
8=FIX.4.4|9=0000105|35=0|49=accept-comp|56=init-comp|34=71|57=fix|52=20241012-13:35:44.083|112=heartbeat-10/12/2024 13:35:44|10=034|
8=FIX.4.4|9=0000105|35=0|49=accept-comp|56=init-comp|34=72|57=fix|52=20241012-13:36:14.014|112=heartbeat-10/12/2024 13:36:14|10=025|
8=FIX.4.4|9=000105|35=0|49=init-comp|56=accept-comp|34=72|57=fix|52=20241012-13:36:14.033|112=heartbeat-10/12/2024 13:36:14|10=234|
8=FIX.4.4|9=0000105|35=0|49=accept-comp|56=init-comp|34=73|57=fix|52=20241012-13:36:44.032|112=heartbeat-10/12/2024 13:36:44|10=032|
8=FIX.4.4|9=000105|35=0|49=init-comp|56=accept-comp|34=73|57=fix|52=20241012-13:36:44.057|112=heartbeat-10/12/2024 13:36:44|10=247|
8=FIX.4.4|9=0000105|35=0|49=accept-comp|56=init-comp|34=74|57=fix|52=20241012-13:37:14.020|112=heartbeat-10/12/2024 13:37:14|10=026|
8=FIX.4.4|9=000105|35=0|49=init-comp|56=accept-comp|34=74|57=fix|52=20241012-13:37:14.040|112=heartbeat-10/12/2024 13:37:14|10=236|
8=FIX.4.4|9=0000105|35=0|49=accept-comp|56=init-comp|34=75|57=fix|52=20241012-13:37:44.025|112=heartbeat-10/12/2024 13:37:44|10=038|
8=FIX.4.4|9=000105|35=0|49=init-comp|56=accept-comp|34=75|57=fix|52=20241012-13:37:44.050|112=heartbeat-10/12/2024 13:37:44|10=244|
8=FIX.4.4|9=000105|35=0|49=init-comp|56=accept-comp|34=76|57=fix|52=20241012-13:38:14.028|112=heartbeat-10/12/2024 13:38:14|10=246|
8=FIX.4.4|9=0000105|35=0|49=accept-comp|56=init-comp|34=76|57=fix|52=20241012-13:38:14.106|112=heartbeat-10/12/2024 13:38:14|10=035|
8=FIX.4.4|9=000105|35=0|49=init-comp|56=accept-comp|34=77|57=fix|52=20241012-13:38:44.006|112=heartbeat-10/12/2024 13:38:44|10=249|
8=FIX.4.4|9=0000105|35=0|49=accept-comp|56=init-comp|34=77|57=fix|52=20241012-13:38:44.082|112=heartbeat-10/12/2024 13:38:44|10=045|
8=FIX.4.4|9=000105|35=0|49=init-comp|56=accept-comp|34=78|57=fix|52=20241012-13:39:14.023|112=heartbeat-10/12/2024 13:39:14|10=245|
8=FIX.4.4|9=0000105|35=0|49=accept-comp|56=init-comp|34=78|57=fix|52=20241012-13:39:14.090|112=heartbeat-10/12/2024 13:39:14|10=041|
8=FIX.4.4|9=0000105|35=0|49=accept-comp|56=init-comp|34=79|57=fix|52=20241012-13:39:44.020|112=heartbeat-10/12/2024 13:39:44|10=041|
8=FIX.4.4|9=000105|35=0|49=init-comp|56=accept-comp|34=79|57=fix|52=20241012-13:39:44.039|112=heartbeat-10/12/2024 13:39:44|10=003|
8=FIX.4.4|9=0000105|35=0|49=accept-comp|56=init-comp|34=80|57=fix|52=20241012-13:40:14.051|112=heartbeat-10/12/2024 13:40:14|10=015|
8=FIX.4.4|9=000105|35=0|49=init-comp|56=accept-comp|34=80|57=fix|52=20241012-13:40:14.075|112=heartbeat-10/12/2024 13:40:14|10=229|
8=FIX.4.4|9=0000105|35=0|49=accept-comp|56=init-comp|34=81|57=fix|52=20241012-13:40:44.060|112=heartbeat-10/12/2024 13:40:44|10=022|
8=FIX.4.4|9=000105|35=0|49=init-comp|56=accept-comp|34=81|57=fix|52=20241012-13:40:44.084|112=heartbeat-10/12/2024 13:40:44|10=236|
8=FIX.4.4|9=0000105|35=0|49=accept-comp|56=init-comp|34=82|57=fix|52=20241012-13:41:14.034|112=heartbeat-10/12/2024 13:41:14|10=020|
8=FIX.4.4|9=000105|35=0|49=init-comp|56=accept-comp|34=82|57=fix|52=20241012-13:41:14.062|112=heartbeat-10/12/2024 13:41:14|10=229|
8=FIX.4.4|9=000105|35=0|49=init-comp|56=accept-comp|34=83|57=fix|52=20241012-13:41:44.004|112=heartbeat-10/12/2024 13:41:44|10=232|
8=FIX.4.4|9=0000105|35=0|49=accept-comp|56=init-comp|34=83|57=fix|52=20241012-13:41:44.085|112=heartbeat-10/12/2024 13:41:44|10=033|
8=FIX.4.4|9=000105|35=0|49=init-comp|56=accept-comp|34=84|57=fix|52=20241012-13:42:14.004|112=heartbeat-10/12/2024 13:42:14|10=229|
8=FIX.4.4|9=0000105|35=0|49=accept-comp|56=init-comp|34=84|57=fix|52=20241012-13:42:14.089|112=heartbeat-10/12/2024 13:42:14|10=034|
8=FIX.4.4|9=0000105|35=0|49=accept-comp|56=init-comp|34=85|57=fix|52=20241012-13:42:44.074|112=heartbeat-10/12/2024 13:42:44|10=035|
8=FIX.4.4|9=000105|35=0|49=init-comp|56=accept-comp|34=85|57=fix|52=20241012-13:42:44.096|112=heartbeat-10/12/2024 13:42:44|10=247|
8=FIX.4.4|9=0000105|35=0|49=accept-comp|56=init-comp|34=86|57=fix|52=20241012-13:43:14.020|112=heartbeat-10/12/2024 13:43:14|10=023|
8=FIX.4.4|9=000105|35=0|49=init-comp|56=accept-comp|34=86|57=fix|52=20241012-13:43:14.054|112=heartbeat-10/12/2024 13:43:14|10=238|
8=FIX.4.4|9=0000105|35=0|49=accept-comp|56=init-comp|34=87|57=fix|52=20241012-13:43:44.006|112=heartbeat-10/12/2024 13:43:44|10=034|
8=FIX.4.4|9=000105|35=0|49=init-comp|56=accept-comp|34=87|57=fix|52=20241012-13:43:44.034|112=heartbeat-10/12/2024 13:43:44|10=243|
8=FIX.4.4|9=0000105|35=0|49=accept-comp|56=init-comp|34=88|57=fix|52=20241012-13:44:14.017|112=heartbeat-10/12/2024 13:44:14|10=033|
8=FIX.4.4|9=000105|35=0|49=init-comp|56=accept-comp|34=88|57=fix|52=20241012-13:44:14.038|112=heartbeat-10/12/2024 13:44:14|10=244|
8=FIX.4.4|9=0000105|35=0|49=accept-comp|56=init-comp|34=89|57=fix|52=20241012-13:44:44.005|112=heartbeat-10/12/2024 13:44:44|10=037|
8=FIX.4.4|9=000105|35=0|49=init-comp|56=accept-comp|34=89|57=fix|52=20241012-13:44:44.030|112=heartbeat-10/12/2024 13:44:44|10=243|
8=FIX.4.4|9=000105|35=0|49=init-comp|56=accept-comp|34=90|57=fix|52=20241012-13:45:14.024|112=heartbeat-10/12/2024 13:45:14|10=234|
8=FIX.4.4|9=0000105|35=0|49=accept-comp|56=init-comp|34=90|57=fix|52=20241012-13:45:14.106|112=heartbeat-10/12/2024 13:45:14|10=027|
8=FIX.4.4|9=000105|35=0|49=init-comp|56=accept-comp|34=91|57=fix|52=20241012-13:45:44.002|112=heartbeat-10/12/2024 13:45:44|10=237|
8=FIX.4.4|9=0000105|35=0|49=accept-comp|56=init-comp|34=91|57=fix|52=20241012-13:45:44.077|112=heartbeat-10/12/2024 13:45:44|10=041|
8=FIX.4.4|9=0000105|35=0|49=accept-comp|56=init-comp|34=92|57=fix|52=20241012-13:46:14.014|112=heartbeat-10/12/2024 13:46:14|10=029|
8=FIX.4.4|9=000105|35=0|49=init-comp|56=accept-comp|34=92|57=fix|52=20241012-13:46:14.032|112=heartbeat-10/12/2024 13:46:14|10=237|
8=FIX.4.4|9=000105|35=0|49=init-comp|56=accept-comp|34=93|57=fix|52=20241012-13:46:44.011|112=heartbeat-10/12/2024 13:46:44|10=241|
8=FIX.4.4|9=0000105|35=0|49=accept-comp|56=init-comp|34=93|57=fix|52=20241012-13:46:44.097|112=heartbeat-10/12/2024 13:46:44|10=047|
8=FIX.4.4|9=0000105|35=0|49=accept-comp|56=init-comp|34=94|57=fix|52=20241012-13:47:14.063|112=heartbeat-10/12/2024 13:47:14|10=037|
8=FIX.4.4|9=000105|35=0|49=init-comp|56=accept-comp|34=94|57=fix|52=20241012-13:47:14.089|112=heartbeat-10/12/2024 13:47:14|10=253|
8=FIX.4.4|9=000105|35=0|49=init-comp|56=accept-comp|34=95|57=fix|52=20241012-13:47:44.010|112=heartbeat-10/12/2024 13:47:44|10=244|
8=FIX.4.4|9=0000105|35=0|49=accept-comp|56=init-comp|34=95|57=fix|52=20241012-13:47:44.097|112=heartbeat-10/12/2024 13:47:44|10=051|
8=FIX.4.4|9=0000105|35=0|49=accept-comp|56=init-comp|34=96|57=fix|52=20241012-13:48:14.066|112=heartbeat-10/12/2024 13:48:14|10=044|
8=FIX.4.4|9=000105|35=0|49=init-comp|56=accept-comp|34=96|57=fix|52=20241012-13:48:14.085|112=heartbeat-10/12/2024 13:48:14|10=253|
8=FIX.4.4|9=0000105|35=0|49=accept-comp|56=init-comp|34=97|57=fix|52=20241012-13:48:44.030|112=heartbeat-10/12/2024 13:48:44|10=042|
8=FIX.4.4|9=000105|35=0|49=init-comp|56=accept-comp|34=97|57=fix|52=20241012-13:48:44.052|112=heartbeat-10/12/2024 13:48:44|10=254|
8=FIX.4.4|9=0000105|35=0|49=accept-comp|56=init-comp|34=98|57=fix|52=20241012-13:49:14.054|112=heartbeat-10/12/2024 13:49:14|10=045|
8=FIX.4.4|9=000105|35=0|49=init-comp|56=accept-comp|34=98|57=fix|52=20241012-13:49:14.090|112=heartbeat-10/12/2024 13:49:14|10=253|
8=FIX.4.4|9=0000105|35=0|49=accept-comp|56=init-comp|34=99|57=fix|52=20241012-13:49:44.034|112=heartbeat-10/12/2024 13:49:44|10=050|
8=FIX.4.4|9=000105|35=0|49=init-comp|56=accept-comp|34=99|57=fix|52=20241012-13:49:44.053|112=heartbeat-10/12/2024 13:49:44|10=003|
8=FIX.4.4|9=0000106|35=0|49=accept-comp|56=init-comp|34=100|57=fix|52=20241012-13:50:14.019|112=heartbeat-10/12/2024 13:50:14|10=063|
8=FIX.4.4|9=000106|35=0|49=init-comp|56=accept-comp|34=100|57=fix|52=20241012-13:50:14.050|112=heartbeat-10/12/2024 13:50:14|10=010|
8=FIX.4.4|9=0000106|35=0|49=accept-comp|56=init-comp|34=101|57=fix|52=20241012-13:50:44.062|112=heartbeat-10/12/2024 13:50:44|10=068|
8=FIX.4.4|9=000106|35=0|49=init-comp|56=accept-comp|34=101|57=fix|52=20241012-13:50:44.088|112=heartbeat-10/12/2024 13:50:44|10=028|
8=FIX.4.4|9=0000106|35=0|49=accept-comp|56=init-comp|34=102|57=fix|52=20241012-13:51:14.017|112=heartbeat-10/12/2024 13:51:14|10=065|
8=FIX.4.4|9=000106|35=0|49=init-comp|56=accept-comp|34=102|57=fix|52=20241012-13:51:14.038|112=heartbeat-10/12/2024 13:51:14|10=020|
8=FIX.4.4|9=0000106|35=0|49=accept-comp|56=init-comp|34=103|57=fix|52=20241012-13:51:44.046|112=heartbeat-10/12/2024 13:51:44|10=074|
8=FIX.4.4|9=000106|35=0|49=init-comp|56=accept-comp|34=103|57=fix|52=20241012-13:51:44.064|112=heartbeat-10/12/2024 13:51:44|10=026|
8=FIX.4.4|9=000106|35=0|49=init-comp|56=accept-comp|34=104|57=fix|52=20241012-13:52:14.005|112=heartbeat-10/12/2024 13:52:14|10=018|
8=FIX.4.4|9=0000106|35=0|49=accept-comp|56=init-comp|34=104|57=fix|52=20241012-13:52:14.082|112=heartbeat-10/12/2024 13:52:14|10=071|
8=FIX.4.4|9=000106|35=0|49=init-comp|56=accept-comp|34=105|57=fix|52=20241012-13:52:44.013|112=heartbeat-10/12/2024 13:52:44|10=024|
8=FIX.4.4|9=0000106|35=0|49=accept-comp|56=init-comp|34=105|57=fix|52=20241012-13:52:44.085|112=heartbeat-10/12/2024 13:52:44|10=081|
8=FIX.4.4|9=0000106|35=0|49=accept-comp|56=init-comp|34=106|57=fix|52=20241012-13:53:14.066|112=heartbeat-10/12/2024 13:53:14|10=077|
8=FIX.4.4|9=000106|35=0|49=init-comp|56=accept-comp|34=106|57=fix|52=20241012-13:53:14.093|112=heartbeat-10/12/2024 13:53:14|10=029|
8=FIX.4.4|9=0000106|35=0|49=accept-comp|56=init-comp|34=107|57=fix|52=20241012-13:53:44.020|112=heartbeat-10/12/2024 13:53:44|10=074|
8=FIX.4.4|9=000106|35=0|49=init-comp|56=accept-comp|34=107|57=fix|52=20241012-13:53:44.051|112=heartbeat-10/12/2024 13:53:44|10=030|
8=FIX.4.4|9=0000106|35=0|49=accept-comp|56=init-comp|34=108|57=fix|52=20241012-13:54:14.079|112=heartbeat-10/12/2024 13:54:14|10=085|
8=FIX.4.4|9=000106|35=0|49=init-comp|56=accept-comp|34=108|57=fix|52=20241012-13:54:14.099|112=heartbeat-10/12/2024 13:54:14|10=039|
8=FIX.4.4|9=0000106|35=0|49=accept-comp|56=init-comp|34=109|57=fix|52=20241012-13:54:44.003|112=heartbeat-10/12/2024 13:54:44|10=079|
8=FIX.4.4|9=000106|35=0|49=init-comp|56=accept-comp|34=109|57=fix|52=20241012-13:54:44.028|112=heartbeat-10/12/2024 13:54:44|10=038|
8=FIX.4.4|9=0000106|35=0|49=accept-comp|56=init-comp|34=110|57=fix|52=20241012-13:55:14.049|112=heartbeat-10/12/2024 13:55:14|10=077|
8=FIX.4.4|9=000106|35=0|49=init-comp|56=accept-comp|34=110|57=fix|52=20241012-13:55:14.069|112=heartbeat-10/12/2024 13:55:14|10=031|
8=FIX.4.4|9=0000106|35=0|49=accept-comp|56=init-comp|34=111|57=fix|52=20241012-13:55:44.022|112=heartbeat-10/12/2024 13:55:44|10=075|
8=FIX.4.4|9=000106|35=0|49=init-comp|56=accept-comp|34=111|57=fix|52=20241012-13:55:44.045|112=heartbeat-10/12/2024 13:55:44|10=032|
8=FIX.4.4|9=0000106|35=0|49=accept-comp|56=init-comp|34=112|57=fix|52=20241012-13:56:14.071|112=heartbeat-10/12/2024 13:56:14|10=076|
8=FIX.4.4|9=000106|35=0|49=init-comp|56=accept-comp|34=112|57=fix|52=20241012-13:56:14.096|112=heartbeat-10/12/2024 13:56:14|10=035|
8=FIX.4.4|9=0000106|35=0|49=accept-comp|56=init-comp|34=113|57=fix|52=20241012-13:56:44.027|112=heartbeat-10/12/2024 13:56:44|10=084|
8=FIX.4.4|9=000106|35=0|49=init-comp|56=accept-comp|34=113|57=fix|52=20241012-13:56:44.047|112=heartbeat-10/12/2024 13:56:44|10=038|
8=FIX.4.4|9=0000106|35=0|49=accept-comp|56=init-comp|34=114|57=fix|52=20241012-13:57:14.016|112=heartbeat-10/12/2024 13:57:14|10=079|
8=FIX.4.4|9=000106|35=0|49=init-comp|56=accept-comp|34=114|57=fix|52=20241012-13:57:14.045|112=heartbeat-10/12/2024 13:57:14|10=033|
8=FIX.4.4|9=0000106|35=0|49=accept-comp|56=init-comp|34=115|57=fix|52=20241012-13:57:44.072|112=heartbeat-10/12/2024 13:57:44|10=088|
8=FIX.4.4|9=000106|35=0|49=init-comp|56=accept-comp|34=115|57=fix|52=20241012-13:57:44.092|112=heartbeat-10/12/2024 13:57:44|10=042|
8=FIX.4.4|9=0000106|35=0|49=accept-comp|56=init-comp|34=116|57=fix|52=20241012-13:58:14.061|112=heartbeat-10/12/2024 13:58:14|10=083|
8=FIX.4.4|9=000106|35=0|49=init-comp|56=accept-comp|34=116|57=fix|52=20241012-13:58:14.088|112=heartbeat-10/12/2024 13:58:14|10=044|
8=FIX.4.4|9=0000106|35=0|49=accept-comp|56=init-comp|34=117|57=fix|52=20241012-13:58:44.042|112=heartbeat-10/12/2024 13:58:44|10=089|
8=FIX.4.4|9=000106|35=0|49=init-comp|56=accept-comp|34=117|57=fix|52=20241012-13:58:44.071|112=heartbeat-10/12/2024 13:58:44|10=043|
8=FIX.4.4|9=000106|35=0|49=init-comp|56=accept-comp|34=118|57=fix|52=20241012-13:59:14.013|112=heartbeat-10/12/2024 13:59:14|10=036|
8=FIX.4.4|9=0000106|35=0|49=accept-comp|56=init-comp|34=118|57=fix|52=20241012-13:59:14.096|112=heartbeat-10/12/2024 13:59:14|10=095|
8=FIX.4.4|9=000106|35=0|49=init-comp|56=accept-comp|34=119|57=fix|52=20241012-13:59:44.016|112=heartbeat-10/12/2024 13:59:44|10=046|
8=FIX.4.4|9=0000106|35=0|49=accept-comp|56=init-comp|34=119|57=fix|52=20241012-13:59:44.090|112=heartbeat-10/12/2024 13:59:44|10=096|
8=FIX.4.4|9=0000106|35=0|49=accept-comp|56=init-comp|34=120|57=fix|52=20241012-14:00:14.030|112=heartbeat-10/12/2024 14:00:14|10=050|
8=FIX.4.4|9=000106|35=0|49=init-comp|56=accept-comp|34=120|57=fix|52=20241012-14:00:14.050|112=heartbeat-10/12/2024 14:00:14|10=004|
8=FIX.4.4|9=000106|35=0|49=init-comp|56=accept-comp|34=121|57=fix|52=20241012-14:00:44.023|112=heartbeat-10/12/2024 14:00:44|10=011|
8=FIX.4.4|9=0000106|35=0|49=accept-comp|56=init-comp|34=121|57=fix|52=20241012-14:00:44.106|112=heartbeat-10/12/2024 14:00:44|10=061|
8=FIX.4.4|9=0000106|35=0|49=accept-comp|56=init-comp|34=122|57=fix|52=20241012-14:01:14.042|112=heartbeat-10/12/2024 14:01:14|10=057|
8=FIX.4.4|9=000106|35=0|49=init-comp|56=accept-comp|34=122|57=fix|52=20241012-14:01:14.066|112=heartbeat-10/12/2024 14:01:14|10=015|
8=FIX.4.4|9=0000106|35=0|49=accept-comp|56=init-comp|34=123|57=fix|52=20241012-14:01:44.060|112=heartbeat-10/12/2024 14:01:44|10=064|
8=FIX.4.4|9=000106|35=0|49=init-comp|56=accept-comp|34=123|57=fix|52=20241012-14:01:44.080|112=heartbeat-10/12/2024 14:01:44|10=018|
8=FIX.4.4|9=0000106|35=0|49=accept-comp|56=init-comp|34=124|57=fix|52=20241012-14:02:14.035|112=heartbeat-10/12/2024 14:02:14|10=063|
8=FIX.4.4|9=000106|35=0|49=init-comp|56=accept-comp|34=124|57=fix|52=20241012-14:02:14.064|112=heartbeat-10/12/2024 14:02:14|10=017|
8=FIX.4.4|9=000106|35=0|49=init-comp|56=accept-comp|34=125|57=fix|52=20241012-14:02:44.007|112=heartbeat-10/12/2024 14:02:44|10=021|
8=FIX.4.4|9=0000106|35=0|49=accept-comp|56=init-comp|34=125|57=fix|52=20241012-14:02:44.084|112=heartbeat-10/12/2024 14:02:44|10=074|
8=FIX.4.4|9=0000106|35=0|49=accept-comp|56=init-comp|34=126|57=fix|52=20241012-14:03:14.050|112=heartbeat-10/12/2024 14:03:14|10=064|
8=FIX.4.4|9=000106|35=0|49=init-comp|56=accept-comp|34=126|57=fix|52=20241012-14:03:14.083|112=heartbeat-10/12/2024 14:03:14|10=022|
8=FIX.4.4|9=0000105|35=1|49=accept-comp|56=init-comp|34=127|57=fix|52=20241012-15:10:21.269|112=test-req-10/12/2024 15:10:21|10=204|
8=FIX.4.4|9=000105|35=0|49=init-comp|56=accept-comp|34=127|57=fix|52=20241012-15:10:21.272|112=test-req-10/12/2024 15:10:21|10=149|
