8=FIX.4.4|9=000117|35=A|49=init-comp|56=accept-comp|34=1|57=fix|52=20241011-19:18:24.754|98=0|108=30|141=Y|553=js-client|554=pwd-client|10=244|
8=FIX.4.4|9=0000117|35=A|49=accept-comp|56=init-comp|34=1|57=fix|52=20241011-19:18:24.778|98=0|108=30|141=Y|553=js-server|554=pwd-server|10=090|
8=FIX.4.4|9=0000104|35=0|49=accept-comp|56=init-comp|34=2|57=fix|52=20241011-19:18:54.065|112=heartbeat-10/11/2024 19:18:54|10=249|
8=FIX.4.4|9=000104|35=0|49=init-comp|56=accept-comp|34=2|57=fix|52=20241011-19:18:54.075|112=heartbeat-10/11/2024 19:18:54|10=202|
8=FIX.4.4|9=0000104|35=0|49=accept-comp|56=init-comp|34=3|57=fix|52=20241011-19:19:24.092|112=heartbeat-10/11/2024 19:19:24|10=246|
8=FIX.4.4|9=000104|35=0|49=init-comp|56=accept-comp|34=3|57=fix|52=20241011-19:19:24.102|112=heartbeat-10/11/2024 19:19:24|10=190|
8=FIX.4.4|9=0000104|35=0|49=accept-comp|56=init-comp|34=4|57=fix|52=20241011-19:19:54.040|112=heartbeat-10/11/2024 19:19:54|10=246|
8=FIX.4.4|9=000104|35=0|49=init-comp|56=accept-comp|34=4|57=fix|52=20241011-19:19:54.048|112=heartbeat-10/11/2024 19:19:54|10=206|
8=FIX.4.4|9=0000104|35=0|49=accept-comp|56=init-comp|34=5|57=fix|52=20241011-19:20:24.065|112=heartbeat-10/11/2024 19:20:24|10=232|
8=FIX.4.4|9=000104|35=0|49=init-comp|56=accept-comp|34=5|57=fix|52=20241011-19:20:24.076|112=heartbeat-10/11/2024 19:20:24|10=186|
8=FIX.4.4|9=0000104|35=0|49=accept-comp|56=init-comp|34=6|57=fix|52=20241011-19:20:54.024|112=heartbeat-10/11/2024 19:20:54|10=234|
8=FIX.4.4|9=000104|35=0|49=init-comp|56=accept-comp|34=6|57=fix|52=20241011-19:20:54.034|112=heartbeat-10/11/2024 19:20:54|10=187|
8=FIX.4.4|9=0000104|35=0|49=accept-comp|56=init-comp|34=7|57=fix|52=20241011-19:21:24.051|112=heartbeat-10/11/2024 19:21:24|10=231|
8=FIX.4.4|9=000104|35=0|49=init-comp|56=accept-comp|34=7|57=fix|52=20241011-19:21:24.064|112=heartbeat-10/11/2024 19:21:24|10=187|
8=FIX.4.4|9=000104|35=0|49=init-comp|56=accept-comp|34=8|57=fix|52=20241011-19:21:54.066|112=heartbeat-10/11/2024 19:21:54|10=196|
8=FIX.4.4|9=0000104|35=0|49=accept-comp|56=init-comp|34=8|57=fix|52=20241011-19:21:54.066|112=heartbeat-10/11/2024 19:21:54|10=244|
8=FIX.4.4|9=0000104|35=0|49=accept-comp|56=init-comp|34=9|57=fix|52=20241011-19:22:24.077|112=heartbeat-10/11/2024 19:22:24|10=243|
8=FIX.4.4|9=000104|35=0|49=init-comp|56=accept-comp|34=9|57=fix|52=20241011-19:22:24.094|112=heartbeat-10/11/2024 19:22:24|10=194|
8=FIX.4.4|9=0000105|35=0|49=accept-comp|56=init-comp|34=10|57=fix|52=20241011-19:22:54.014|112=heartbeat-10/11/2024 19:22:54|10=025|
8=FIX.4.4|9=000105|35=0|49=init-comp|56=accept-comp|34=10|57=fix|52=20241011-19:22:54.025|112=heartbeat-10/11/2024 19:22:54|10=235|
8=FIX.4.4|9=0000105|35=0|49=accept-comp|56=init-comp|34=11|57=fix|52=20241011-19:23:24.070|112=heartbeat-10/11/2024 19:23:24|10=024|
8=FIX.4.4|9=000105|35=0|49=init-comp|56=accept-comp|34=11|57=fix|52=20241011-19:23:24.078|112=heartbeat-10/11/2024 19:23:24|10=240|
8=FIX.4.4|9=0000105|35=0|49=accept-comp|56=init-comp|34=12|57=fix|52=20241011-19:23:54.012|112=heartbeat-10/11/2024 19:23:54|10=027|
8=FIX.4.4|9=000105|35=0|49=init-comp|56=accept-comp|34=12|57=fix|52=20241011-19:23:54.022|112=heartbeat-10/11/2024 19:23:54|10=236|
8=FIX.4.4|9=0000105|35=0|49=accept-comp|56=init-comp|34=13|57=fix|52=20241011-19:24:24.032|112=heartbeat-10/11/2024 19:24:24|10=026|
8=FIX.4.4|9=000105|35=0|49=init-comp|56=accept-comp|34=13|57=fix|52=20241011-19:24:24.048|112=heartbeat-10/11/2024 19:24:24|10=241|
8=FIX.4.4|9=0000105|35=0|49=accept-comp|56=init-comp|34=14|57=fix|52=20241011-19:24:54.044|112=heartbeat-10/11/2024 19:24:54|10=036|
8=FIX.4.4|9=000105|35=0|49=init-comp|56=accept-comp|34=14|57=fix|52=20241011-19:24:54.055|112=heartbeat-10/11/2024 19:24:54|10=246|
8=FIX.4.4|9=0000105|35=0|49=accept-comp|56=init-comp|34=15|57=fix|52=20241011-19:25:24.066|112=heartbeat-10/11/2024 19:25:24|10=037|
8=FIX.4.4|9=000105|35=0|49=init-comp|56=accept-comp|34=15|57=fix|52=20241011-19:25:24.076|112=heartbeat-10/11/2024 19:25:24|10=246|
8=FIX.4.4|9=0000105|35=0|49=accept-comp|56=init-comp|34=16|57=fix|52=20241011-19:25:54.027|112=heartbeat-10/11/2024 19:25:54|10=041|
8=FIX.4.4|9=000105|35=0|49=init-comp|56=accept-comp|34=16|57=fix|52=20241011-19:25:54.037|112=heartbeat-10/11/2024 19:25:54|10=250|
8=FIX.4.4|9=000105|35=0|49=init-comp|56=accept-comp|34=17|57=fix|52=20241011-19:26:24.021|112=heartbeat-10/11/2024 19:26:24|10=240|
8=FIX.4.4|9=0000105|35=0|49=accept-comp|56=init-comp|34=17|57=fix|52=20241011-19:26:24.021|112=heartbeat-10/11/2024 19:26:24|10=032|
8=FIX.4.4|9=0000105|35=0|49=accept-comp|56=init-comp|34=18|57=fix|52=20241011-19:26:54.028|112=heartbeat-10/11/2024 19:26:54|10=046|
8=FIX.4.4|9=000105|35=0|49=init-comp|56=accept-comp|34=18|57=fix|52=20241011-19:26:54.036|112=heartbeat-10/11/2024 19:26:54|10=253|
8=FIX.4.4|9=0000105|35=0|49=accept-comp|56=init-comp|34=19|57=fix|52=20241011-19:27:24.032|112=heartbeat-10/11/2024 19:27:24|10=038|
8=FIX.4.4|9=000105|35=0|49=init-comp|56=accept-comp|34=19|57=fix|52=20241011-19:27:24.042|112=heartbeat-10/11/2024 19:27:24|10=247|
8=FIX.4.4|9=0000105|35=0|49=accept-comp|56=init-comp|34=20|57=fix|52=20241011-19:27:54.013|112=heartbeat-10/11/2024 19:27:54|10=035|
8=FIX.4.4|9=000105|35=0|49=init-comp|56=accept-comp|34=20|57=fix|52=20241011-19:27:54.028|112=heartbeat-10/11/2024 19:27:54|10=249|
8=FIX.4.4|9=0000105|35=0|49=accept-comp|56=init-comp|34=21|57=fix|52=20241011-19:28:24.093|112=heartbeat-10/11/2024 19:28:24|10=040|
8=FIX.4.4|9=000105|35=0|49=init-comp|56=accept-comp|34=21|57=fix|52=20241011-19:28:24.103|112=heartbeat-10/11/2024 19:28:24|10=240|
8=FIX.4.4|9=0000105|35=0|49=accept-comp|56=init-comp|34=22|57=fix|52=20241011-19:28:54.074|112=heartbeat-10/11/2024 19:28:54|10=046|
8=FIX.4.4|9=000105|35=0|49=init-comp|56=accept-comp|34=22|57=fix|52=20241011-19:28:54.082|112=heartbeat-10/11/2024 19:28:54|10=253|
8=FIX.4.4|9=0000105|35=0|49=accept-comp|56=init-comp|34=23|57=fix|52=20241011-19:29:24.048|112=heartbeat-10/11/2024 19:29:24|10=044|
8=FIX.4.4|9=000105|35=0|49=init-comp|56=accept-comp|34=23|57=fix|52=20241011-19:29:24.059|112=heartbeat-10/11/2024 19:29:24|10=254|
8=FIX.4.4|9=0000105|35=0|49=accept-comp|56=init-comp|34=24|57=fix|52=20241011-19:29:54.039|112=heartbeat-10/11/2024 19:29:54|10=051|
8=FIX.4.4|9=000105|35=0|49=init-comp|56=accept-comp|34=24|57=fix|52=20241011-19:29:54.058|112=heartbeat-10/11/2024 19:29:54|10=004|
8=FIX.4.4|9=000105|35=0|49=init-comp|56=accept-comp|34=25|57=fix|52=20241011-19:30:24.007|112=heartbeat-10/11/2024 19:30:24|10=233|
8=FIX.4.4|9=0000105|35=0|49=accept-comp|56=init-comp|34=25|57=fix|52=20241011-19:30:24.100|112=heartbeat-10/11/2024 19:30:24|10=019|
8=FIX.4.4|9=0000105|35=0|49=accept-comp|56=init-comp|34=26|57=fix|52=20241011-19:30:54.043|112=heartbeat-10/11/2024 19:30:54|10=032|
8=FIX.4.4|9=000105|35=0|49=init-comp|56=accept-comp|34=26|57=fix|52=20241011-19:30:54.051|112=heartbeat-10/11/2024 19:30:54|10=239|
8=FIX.4.4|9=0000105|35=0|49=accept-comp|56=init-comp|34=27|57=fix|52=20241011-19:31:24.082|112=heartbeat-10/11/2024 19:31:24|10=032|
8=FIX.4.4|9=000105|35=0|49=init-comp|56=accept-comp|34=27|57=fix|52=20241011-19:31:24.095|112=heartbeat-10/11/2024 19:31:24|10=244|
8=FIX.4.4|9=000105|35=0|49=init-comp|56=accept-comp|34=28|57=fix|52=20241011-19:31:54.004|112=heartbeat-10/11/2024 19:31:54|10=241|
8=FIX.4.4|9=0000105|35=0|49=accept-comp|56=init-comp|34=28|57=fix|52=20241011-19:31:54.089|112=heartbeat-10/11/2024 19:31:54|10=046|
8=FIX.4.4|9=000105|35=0|49=init-comp|56=accept-comp|34=29|57=fix|52=20241011-19:32:24.007|112=heartbeat-10/11/2024 19:32:24|10=241|
8=FIX.4.4|9=0000105|35=0|49=accept-comp|56=init-comp|34=29|57=fix|52=20241011-19:32:24.091|112=heartbeat-10/11/2024 19:32:24|10=036|
8=FIX.4.4|9=0000105|35=0|49=accept-comp|56=init-comp|34=30|57=fix|52=20241011-19:32:54.060|112=heartbeat-10/11/2024 19:32:54|10=030|
8=FIX.4.4|9=000105|35=0|49=init-comp|56=accept-comp|34=30|57=fix|52=20241011-19:32:54.070|112=heartbeat-10/11/2024 19:32:54|10=239|
8=FIX.4.4|9=000105|35=0|49=init-comp|56=accept-comp|34=31|57=fix|52=20241011-19:33:24.006|112=heartbeat-10/11/2024 19:33:24|10=235|
8=FIX.4.4|9=0000105|35=0|49=accept-comp|56=init-comp|34=31|57=fix|52=20241011-19:33:24.091|112=heartbeat-10/11/2024 19:33:24|10=031|
8=FIX.4.4|9=000105|35=0|49=init-comp|56=accept-comp|34=32|57=fix|52=20241011-19:33:54.099|112=heartbeat-10/11/2024 19:33:54|10=254|
8=FIX.4.4|9=0000105|35=0|49=accept-comp|56=init-comp|34=32|57=fix|52=20241011-19:33:54.098|112=heartbeat-10/11/2024 19:33:54|10=045|
8=FIX.4.4|9=000105|35=0|49=init-comp|56=accept-comp|34=33|57=fix|52=20241011-19:34:24.004|112=heartbeat-10/11/2024 19:34:24|10=237|
8=FIX.4.4|9=0000105|35=0|49=accept-comp|56=init-comp|34=33|57=fix|52=20241011-19:34:24.098|112=heartbeat-10/11/2024 19:34:24|10=042|
8=FIX.4.4|9=0000105|35=0|49=accept-comp|56=init-comp|34=34|57=fix|52=20241011-19:34:54.083|112=heartbeat-10/11/2024 19:34:54|10=043|
8=FIX.4.4|9=000105|35=0|49=init-comp|56=accept-comp|34=34|57=fix|52=20241011-19:34:54.102|112=heartbeat-10/11/2024 19:34:54|10=243|
8=FIX.4.4|9=0000105|35=0|49=accept-comp|56=init-comp|34=35|57=fix|52=20241011-19:35:24.042|112=heartbeat-10/11/2024 19:35:24|10=035|
8=FIX.4.4|9=000105|35=0|49=init-comp|56=accept-comp|34=35|57=fix|52=20241011-19:35:24.061|112=heartbeat-10/11/2024 19:35:24|10=244|
8=FIX.4.4|9=0000105|35=0|49=accept-comp|56=init-comp|34=36|57=fix|52=20241011-19:35:54.074|112=heartbeat-10/11/2024 19:35:54|10=047|
8=FIX.4.4|9=000105|35=0|49=init-comp|56=accept-comp|34=36|57=fix|52=20241011-19:35:54.091|112=heartbeat-10/11/2024 19:35:54|10=254|
8=FIX.4.4|9=0000105|35=0|49=accept-comp|56=init-comp|34=37|57=fix|52=20241011-19:36:24.022|112=heartbeat-10/11/2024 19:36:24|10=037|
8=FIX.4.4|9=000105|35=0|49=init-comp|56=accept-comp|34=37|57=fix|52=20241011-19:36:24.033|112=heartbeat-10/11/2024 19:36:24|10=247|
8=FIX.4.4|9=0000105|35=0|49=accept-comp|56=init-comp|34=38|57=fix|52=20241011-19:36:54.007|112=heartbeat-10/11/2024 19:36:54|10=047|
8=FIX.4.4|9=000105|35=0|49=init-comp|56=accept-comp|34=38|57=fix|52=20241011-19:36:54.016|112=heartbeat-10/11/2024 19:36:54|10=255|
8=FIX.4.4|9=000105|35=0|49=init-comp|56=accept-comp|34=39|57=fix|52=20241011-19:37:24.079|112=heartbeat-10/11/2024 19:37:24|10=005|
8=FIX.4.4|9=0000105|35=0|49=accept-comp|56=init-comp|34=39|57=fix|52=20241011-19:37:24.079|112=heartbeat-10/11/2024 19:37:24|10=053|
8=FIX.4.4|9=0000105|35=0|49=accept-comp|56=init-comp|34=40|57=fix|52=20241011-19:37:54.040|112=heartbeat-10/11/2024 19:37:54|10=039|
8=FIX.4.4|9=000105|35=0|49=init-comp|56=accept-comp|34=40|57=fix|52=20241011-19:37:54.051|112=heartbeat-10/11/2024 19:37:54|10=249|
