8=FIX.5.0SP2|9=0000117|35=A|49=init-comp|56=accept-comp|34=1|57=fix|52=20241012-15:35:21.211|98=0|108=30|141=Y|553=js-client|554=pwd-client|10=227|
8=FIX.5.0SP2|9=0000107|35=A|49=*|56=init-comp|34=1|57=fix|52=20241012-15:35:21.236|98=0|108=30|141=Y|553=js-server|554=pwd-server|10=247|
8=FIX.5.0SP2|9=0000154|35=AD|49=init-comp|56=accept-comp|34=2|57=fix|52=20241012-15:35:21.240|568=all-trades|569=0|263=1|580=2|60=20241012-15:35:21.239|60=20241013-15:35:21.239|10=062|
8=FIX.5.0SP2|9=0000094|35=AQ|49=*|56=init-comp|34=2|57=fix|52=20241012-15:35:21.246|568=all-trades|569=0|749=0|750=0|10=154|
8=FIX.5.0SP2|9=0000174|35=AE|49=*|56=init-comp|34=3|57=fix|52=20241012-15:35:21.249|571=100000|487=0|856=0|828=0|17=600000|570=N|55=Gold|48=Gold|32=1000|31=100|75=20241012|60=20241012-15:35:21.248|10=180|
8=FIX.5.0SP2|9=0000178|35=AE|49=*|56=init-comp|34=4|57=fix|52=20241012-15:35:21.257|571=100001|487=0|856=0|828=0|17=600001|570=N|55=Silver|48=Silver|32=1000|31=100|75=20241012|60=20241012-15:35:21.249|10=153|
8=FIX.5.0SP2|9=0000182|35=AE|49=*|56=init-comp|34=5|57=fix|52=20241012-15:35:21.257|571=100002|487=0|856=0|828=0|17=600002|570=N|55=Platinum|48=Platinum|32=1000|31=100|75=20241012|60=20241012-15:35:21.249|10=065|
8=FIX.5.0SP2|9=0000184|35=AE|49=*|56=init-comp|34=6|57=fix|52=20241012-15:35:21.258|571=100003|487=0|856=0|828=0|17=600003|570=N|55=Magnesium|48=Magnesium|32=1000|31=100|75=20241012|60=20241012-15:35:21.249|10=255|
8=FIX.5.0SP2|9=0000176|35=AE|49=*|56=init-comp|34=7|57=fix|52=20241012-15:35:21.258|571=100004|487=0|856=0|828=0|17=600004|570=N|55=Steel|48=Steel|32=1000|31=100|75=20241012|60=20241012-15:35:21.249|10=177|
8=FIX.5.0SP2|9=0000174|35=AE|49=*|56=init-comp|34=8|57=fix|52=20241012-15:35:21.259|571=100005|487=0|856=0|828=0|17=600005|570=N|55=Gold|48=Gold|32=1000|31=100|75=20241012|60=20241012-15:35:21.249|10=197|
8=FIX.5.0SP2|9=0000178|35=AE|49=*|56=init-comp|34=9|57=fix|52=20241012-15:35:21.259|571=100006|487=0|856=0|828=0|17=600006|570=N|55=Silver|48=Silver|32=1000|31=100|75=20241012|60=20241012-15:35:21.249|10=170|
8=FIX.5.0SP2|9=0000183|35=AE|49=*|56=init-comp|34=10|57=fix|52=20241012-15:35:21.260|571=100007|487=0|856=0|828=0|17=600007|570=N|55=Platinum|48=Platinum|32=1000|31=100|75=20241012|60=20241012-15:35:21.249|10=114|
8=FIX.5.0SP2|9=0000185|35=AE|49=*|56=init-comp|34=11|57=fix|52=20241012-15:35:21.260|571=100008|487=0|856=0|828=0|17=600008|570=N|55=Magnesium|48=Magnesium|32=1000|31=100|75=20241012|60=20241012-15:35:21.249|10=047|
8=FIX.5.0SP2|9=0000177|35=AE|49=*|56=init-comp|34=12|57=fix|52=20241012-15:35:21.261|571=100009|487=0|856=0|828=0|17=600009|570=N|55=Steel|48=Steel|32=1000|31=100|75=20241012|60=20241012-15:35:21.249|10=226|
8=FIX.5.0SP2|9=0000095|35=AQ|49=*|56=init-comp|34=13|57=fix|52=20241012-15:35:21.261|568=all-trades|569=0|749=0|750=1|10=203|
8=FIX.5.0SP2|9=0000175|35=AE|49=*|56=init-comp|34=14|57=fix|52=20241012-15:35:26.270|571=100010|487=0|856=0|828=0|17=600010|570=N|55=Gold|48=Gold|32=1000|31=100|75=20241012|60=20241012-15:35:26.270|10=232|
8=FIX.5.0SP2|9=0000179|35=AE|49=*|56=init-comp|34=15|57=fix|52=20241012-15:35:31.272|571=100011|487=0|856=0|828=0|17=600011|570=N|55=Silver|48=Silver|32=1000|31=100|75=20241012|60=20241012-15:35:31.271|10=200|
8=FIX.5.0SP2|9=0000183|35=AE|49=*|56=init-comp|34=16|57=fix|52=20241012-15:35:31.272|571=100012|487=0|856=0|828=0|17=600012|570=N|55=Platinum|48=Platinum|32=1000|31=100|75=20241012|60=20241012-15:35:31.271|10=112|
8=FIX.5.0SP2|9=0000185|35=AE|49=*|56=init-comp|34=17|57=fix|52=20241012-15:35:33.785|571=100013|487=0|856=0|828=0|17=600013|570=N|55=Magnesium|48=Magnesium|32=1000|31=100|75=20241012|60=20241012-15:35:33.785|10=068|
8=FIX.5.0SP2|9=0000177|35=AE|49=*|56=init-comp|34=18|57=fix|52=20241012-15:35:33.785|571=100014|487=0|856=0|828=0|17=600014|570=N|55=Steel|48=Steel|32=1000|31=100|75=20241012|60=20241012-15:35:33.785|10=246|
8=FIX.5.0SP2|9=0000175|35=AE|49=*|56=init-comp|34=19|57=fix|52=20241012-15:35:33.786|571=100015|487=0|856=0|828=0|17=600015|570=N|55=Gold|48=Gold|32=1000|31=100|75=20241012|60=20241012-15:35:33.785|10=010|
8=FIX.5.0SP2|9=0000179|35=AE|49=*|56=init-comp|34=20|57=fix|52=20241012-15:35:38.788|571=100016|487=0|856=0|828=0|17=600016|570=N|55=Silver|48=Silver|32=1000|31=100|75=20241012|60=20241012-15:35:38.788|10=245|
8=FIX.5.0SP2|9=0000183|35=AE|49=*|56=init-comp|34=21|57=fix|52=20241012-15:35:38.789|571=100017|487=0|856=0|828=0|17=600017|570=N|55=Platinum|48=Platinum|32=1000|31=100|75=20241012|60=20241012-15:35:38.788|10=158|
8=FIX.5.0SP2|9=0000185|35=AE|49=*|56=init-comp|34=22|57=fix|52=20241012-15:35:38.789|571=100018|487=0|856=0|828=0|17=600018|570=N|55=Magnesium|48=Magnesium|32=1000|31=100|75=20241012|60=20241012-15:35:38.788|10=091|
8=FIX.5.0SP2|9=0000177|35=AE|49=*|56=init-comp|34=23|57=fix|52=20241012-15:35:38.790|571=100019|487=0|856=0|828=0|17=600019|570=N|55=Steel|48=Steel|32=1000|31=100|75=20241012|60=20241012-15:35:38.788|10=005|
8=FIX.5.0SP2|9=0000175|35=AE|49=*|56=init-comp|34=24|57=fix|52=20241012-15:35:43.788|571=100020|487=0|856=0|828=0|17=600020|570=N|55=Gold|48=Gold|32=1000|31=100|75=20241012|60=20241012-15:35:43.788|10=005|
8=FIX.5.0SP2|9=0000179|35=AE|49=*|56=init-comp|34=25|57=fix|52=20241012-15:35:43.789|571=100021|487=0|856=0|828=0|17=600021|570=N|55=Silver|48=Silver|32=1000|31=100|75=20241012|60=20241012-15:35:43.788|10=235|
8=FIX.5.0SP2|9=0000183|35=AE|49=*|56=init-comp|34=26|57=fix|52=20241012-15:35:43.790|571=100022|487=0|856=0|828=0|17=600022|570=N|55=Platinum|48=Platinum|32=1000|31=100|75=20241012|60=20241012-15:35:43.788|10=139|
8=FIX.5.0SP2|9=0000185|35=AE|49=*|56=init-comp|34=27|57=fix|52=20241012-15:35:43.791|571=100023|487=0|856=0|828=0|17=600023|570=N|55=Magnesium|48=Magnesium|32=1000|31=100|75=20241012|60=20241012-15:35:43.788|10=073|
8=FIX.5.0SP2|9=0000177|35=AE|49=*|56=init-comp|34=28|57=fix|52=20241012-15:35:43.792|571=100024|487=0|856=0|828=0|17=600024|570=N|55=Steel|48=Steel|32=1000|31=100|75=20241012|60=20241012-15:35:43.788|10=252|
8=FIX.5.0SP2|9=0000175|35=AE|49=*|56=init-comp|34=29|57=fix|52=20241012-15:35:48.783|571=100025|487=0|856=0|828=0|17=600025|570=N|55=Gold|48=Gold|32=1000|31=100|75=20241012|60=20241012-15:35:48.783|10=020|
8=FIX.5.0SP2|9=0000179|35=AE|49=*|56=init-comp|34=30|57=fix|52=20241012-15:35:48.784|571=100026|487=0|856=0|828=0|17=600026|570=N|55=Silver|48=Silver|32=1000|31=100|75=20241012|60=20241012-15:35:48.783|10=241|
8=FIX.5.0SP2|9=0000183|35=AE|49=*|56=init-comp|34=31|57=fix|52=20241012-15:35:48.785|571=100027|487=0|856=0|828=0|17=600027|570=N|55=Platinum|48=Platinum|32=1000|31=100|75=20241012|60=20241012-15:35:48.783|10=154|
8=FIX.5.0SP2|9=0000185|35=AE|49=*|56=init-comp|34=32|57=fix|52=20241012-15:35:48.785|571=100028|487=0|856=0|828=0|17=600028|570=N|55=Magnesium|48=Magnesium|32=1000|31=100|75=20241012|60=20241012-15:35:48.783|10=087|
8=FIX.5.0SP2|9=0000177|35=AE|49=*|56=init-comp|34=33|57=fix|52=20241012-15:35:48.786|571=100029|487=0|856=0|828=0|17=600029|570=N|55=Steel|48=Steel|32=1000|31=100|75=20241012|60=20241012-15:35:48.783|10=010|
8=FIX.5.0SP2|9=0000175|35=AE|49=*|56=init-comp|34=34|57=fix|52=20241012-15:35:48.787|571=100030|487=0|856=0|828=0|17=600030|570=N|55=Gold|48=Gold|32=1000|31=100|75=20241012|60=20241012-15:35:48.783|10=012|
8=FIX.5.0SP2|9=0000104|35=0|49=init-comp|56=accept-comp|34=3|57=fix|52=20241012-15:35:51.043|112=heartbeat-10/12/2024 15:35:51|10=186|
8=FIX.5.0SP2|9=0000179|35=AE|49=*|56=init-comp|34=35|57=fix|52=20241012-15:35:53.785|571=100031|487=0|856=0|828=0|17=600031|570=N|55=Silver|48=Silver|32=1000|31=100|75=20241012|60=20241012-15:35:53.785|10=233|
8=FIX.5.0SP2|9=0000183|35=AE|49=*|56=init-comp|34=36|57=fix|52=20241012-15:35:53.786|571=100032|487=0|856=0|828=0|17=600032|570=N|55=Platinum|48=Platinum|32=1000|31=100|75=20241012|60=20241012-15:35:53.785|10=146|
8=FIX.5.0SP2|9=0000185|35=AE|49=*|56=init-comp|34=37|57=fix|52=20241012-15:35:53.786|571=100033|487=0|856=0|828=0|17=600033|570=N|55=Magnesium|48=Magnesium|32=1000|31=100|75=20241012|60=20241012-15:35:53.785|10=079|
8=FIX.5.0SP2|9=0000177|35=AE|49=*|56=init-comp|34=38|57=fix|52=20241012-15:35:53.787|571=100034|487=0|856=0|828=0|17=600034|570=N|55=Steel|48=Steel|32=1000|31=100|75=20241012|60=20241012-15:35:53.785|10=002|
8=FIX.5.0SP2|9=0000175|35=AE|49=*|56=init-comp|34=39|57=fix|52=20241012-15:35:53.788|571=100035|487=0|856=0|828=0|17=600035|570=N|55=Gold|48=Gold|32=1000|31=100|75=20241012|60=20241012-15:35:53.785|10=022|
8=FIX.5.0SP2|9=0000179|35=AE|49=*|56=init-comp|34=40|57=fix|52=20241012-15:35:53.788|571=100036|487=0|856=0|828=0|17=600036|570=N|55=Silver|48=Silver|32=1000|31=100|75=20241012|60=20241012-15:35:53.785|10=242|
8=FIX.5.0SP2|9=0000183|35=AE|49=*|56=init-comp|34=41|57=fix|52=20241012-15:35:53.789|571=100037|487=0|856=0|828=0|17=600037|570=N|55=Platinum|48=Platinum|32=1000|31=100|75=20241012|60=20241012-15:35:53.785|10=155|
8=FIX.5.0SP2|9=0000185|35=AE|49=*|56=init-comp|34=42|57=fix|52=20241012-15:35:58.780|571=100038|487=0|856=0|828=0|17=600038|570=N|55=Magnesium|48=Magnesium|32=1000|31=100|75=20241012|60=20241012-15:35:58.780|10=084|
8=FIX.5.0SP2|9=0000177|35=AE|49=*|56=init-comp|34=43|57=fix|52=20241012-15:35:58.781|571=100039|487=0|856=0|828=0|17=600039|570=N|55=Steel|48=Steel|32=1000|31=100|75=20241012|60=20241012-15:35:58.780|10=007|
8=FIX.5.0SP2|9=0000175|35=AE|49=*|56=init-comp|34=44|57=fix|52=20241012-15:35:58.783|571=100040|487=0|856=0|828=0|17=600040|570=N|55=Gold|48=Gold|32=1000|31=100|75=20241012|60=20241012-15:35:58.780|10=010|
8=FIX.5.0SP2|9=0000179|35=AE|49=*|56=init-comp|34=45|57=fix|52=20241012-15:35:58.784|571=100041|487=0|856=0|828=0|17=600041|570=N|55=Silver|48=Silver|32=1000|31=100|75=20241012|60=20241012-15:35:58.780|10=240|
8=FIX.5.0SP2|9=0000183|35=AE|49=*|56=init-comp|34=46|57=fix|52=20241012-15:35:58.784|571=100042|487=0|856=0|828=0|17=600042|570=N|55=Platinum|48=Platinum|32=1000|31=100|75=20241012|60=20241012-15:35:58.780|10=152|
8=FIX.5.0SP2|9=0000185|35=AE|49=*|56=init-comp|34=47|57=fix|52=20241012-15:35:58.785|571=100043|487=0|856=0|828=0|17=600043|570=N|55=Magnesium|48=Magnesium|32=1000|31=100|75=20241012|60=20241012-15:35:58.780|10=086|
8=FIX.5.0SP2|9=0000177|35=AE|49=*|56=init-comp|34=48|57=fix|52=20241012-15:35:58.786|571=100044|487=0|856=0|828=0|17=600044|570=N|55=Steel|48=Steel|32=1000|31=100|75=20241012|60=20241012-15:35:58.780|10=009|
8=FIX.5.0SP2|9=0000175|35=AE|49=*|56=init-comp|34=49|57=fix|52=20241012-15:35:58.787|571=100045|487=0|856=0|828=0|17=600045|570=N|55=Gold|48=Gold|32=1000|31=100|75=20241012|60=20241012-15:35:58.780|10=029|
8=FIX.5.0SP2|9=0000179|35=AE|49=*|56=init-comp|34=50|57=fix|52=20241012-15:36:03.795|571=100046|487=0|856=0|828=0|17=600046|570=N|55=Silver|48=Silver|32=1000|31=100|75=20241012|60=20241012-15:36:03.795|10=236|
8=FIX.5.0SP2|9=0000183|35=AE|49=*|56=init-comp|34=51|57=fix|52=20241012-15:36:06.282|571=100047|487=0|856=0|828=0|17=600047|570=N|55=Platinum|48=Platinum|32=1000|31=100|75=20241012|60=20241012-15:36:06.282|10=136|
8=FIX.5.0SP2|9=0000185|35=AE|49=*|56=init-comp|34=52|57=fix|52=20241012-15:36:06.283|571=100048|487=0|856=0|828=0|17=600048|570=N|55=Magnesium|48=Magnesium|32=1000|31=100|75=20241012|60=20241012-15:36:06.282|10=070|
8=FIX.5.0SP2|9=0000177|35=AE|49=*|56=init-comp|34=53|57=fix|52=20241012-15:36:11.275|571=100049|487=0|856=0|828=0|17=600049|570=N|55=Steel|48=Steel|32=1000|31=100|75=20241012|60=20241012-15:36:11.275|10=243|
8=FIX.5.0SP2|9=0000175|35=AE|49=*|56=init-comp|34=54|57=fix|52=20241012-15:36:11.275|571=100050|487=0|856=0|828=0|17=600050|570=N|55=Gold|48=Gold|32=1000|31=100|75=20241012|60=20241012-15:36:11.275|10=244|
8=FIX.5.0SP2|9=0000179|35=AE|49=*|56=init-comp|34=55|57=fix|52=20241012-15:36:11.276|571=100051|487=0|856=0|828=0|17=600051|570=N|55=Silver|48=Silver|32=1000|31=100|75=20241012|60=20241012-15:36:11.275|10=218|
8=FIX.5.0SP2|9=0000183|35=AE|49=*|56=init-comp|34=56|57=fix|52=20241012-15:36:16.284|571=100052|487=0|856=0|828=0|17=600052|570=N|55=Platinum|48=Platinum|32=1000|31=100|75=20241012|60=20241012-15:36:16.284|10=139|
8=FIX.5.0SP2|9=0000185|35=AE|49=*|56=init-comp|34=57|57=fix|52=20241012-15:36:16.284|571=100053|487=0|856=0|828=0|17=600053|570=N|55=Magnesium|48=Magnesium|32=1000|31=100|75=20241012|60=20241012-15:36:16.284|10=072|
8=FIX.5.0SP2|9=0000177|35=AE|49=*|56=init-comp|34=58|57=fix|52=20241012-15:36:16.285|571=100054|487=0|856=0|828=0|17=600054|570=N|55=Steel|48=Steel|32=1000|31=100|75=20241012|60=20241012-15:36:16.284|10=251|
8=FIX.5.0SP2|9=0000175|35=AE|49=*|56=init-comp|34=59|57=fix|52=20241012-15:36:16.286|571=100055|487=0|856=0|828=0|17=600055|570=N|55=Gold|48=Gold|32=1000|31=100|75=20241012|60=20241012-15:36:16.284|10=015|
8=FIX.5.0SP2|9=0000104|35=0|49=init-comp|56=accept-comp|34=4|57=fix|52=20241012-15:36:21.038|112=heartbeat-10/12/2024 15:36:21|10=187|
8=FIX.5.0SP2|9=0000179|35=AE|49=*|56=init-comp|34=60|57=fix|52=20241012-15:36:21.283|571=100056|487=0|856=0|828=0|17=600056|570=N|55=Silver|48=Silver|32=1000|31=100|75=20241012|60=20241012-15:36:21.283|10=223|
8=FIX.5.0SP2|9=0000183|35=AE|49=*|56=init-comp|34=61|57=fix|52=20241012-15:36:21.284|571=100057|487=0|856=0|828=0|17=600057|570=N|55=Platinum|48=Platinum|32=1000|31=100|75=20241012|60=20241012-15:36:21.283|10=136|
8=FIX.5.0SP2|9=0000185|35=AE|49=*|56=init-comp|34=62|57=fix|52=20241012-15:36:21.285|571=100058|487=0|856=0|828=0|17=600058|570=N|55=Magnesium|48=Magnesium|32=1000|31=100|75=20241012|60=20241012-15:36:21.283|10=070|
8=FIX.5.0SP2|9=0000177|35=AE|49=*|56=init-comp|34=63|57=fix|52=20241012-15:36:21.286|571=100059|487=0|856=0|828=0|17=600059|570=N|55=Steel|48=Steel|32=1000|31=100|75=20241012|60=20241012-15:36:21.283|10=249|
8=FIX.5.0SP2|9=0000175|35=AE|49=*|56=init-comp|34=64|57=fix|52=20241012-15:36:21.286|571=100060|487=0|856=0|828=0|17=600060|570=N|55=Gold|48=Gold|32=1000|31=100|75=20241012|60=20241012-15:36:21.283|10=250|
8=FIX.5.0SP2|9=0000179|35=AE|49=*|56=init-comp|34=65|57=fix|52=20241012-15:36:26.286|571=100061|487=0|856=0|828=0|17=600061|570=N|55=Silver|48=Silver|32=1000|31=100|75=20241012|60=20241012-15:36:26.286|10=236|
8=FIX.5.0SP2|9=0000183|35=AE|49=*|56=init-comp|34=66|57=fix|52=20241012-15:36:26.287|571=100062|487=0|856=0|828=0|17=600062|570=N|55=Platinum|48=Platinum|32=1000|31=100|75=20241012|60=20241012-15:36:26.286|10=149|
8=FIX.5.0SP2|9=0000185|35=AE|49=*|56=init-comp|34=67|57=fix|52=20241012-15:36:26.288|571=100063|487=0|856=0|828=0|17=600063|570=N|55=Magnesium|48=Magnesium|32=1000|31=100|75=20241012|60=20241012-15:36:26.286|10=083|
8=FIX.5.0SP2|9=0000177|35=AE|49=*|56=init-comp|34=68|57=fix|52=20241012-15:36:26.289|571=100064|487=0|856=0|828=0|17=600064|570=N|55=Steel|48=Steel|32=1000|31=100|75=20241012|60=20241012-15:36:26.286|10=006|
8=FIX.5.0SP2|9=0000175|35=AE|49=*|56=init-comp|34=69|57=fix|52=20241012-15:36:26.289|571=100065|487=0|856=0|828=0|17=600065|570=N|55=Gold|48=Gold|32=1000|31=100|75=20241012|60=20241012-15:36:26.286|10=025|
8=FIX.5.0SP2|9=0000179|35=AE|49=*|56=init-comp|34=70|57=fix|52=20241012-15:36:26.290|571=100066|487=0|856=0|828=0|17=600066|570=N|55=Silver|48=Silver|32=1000|31=100|75=20241012|60=20241012-15:36:26.286|10=237|
8=FIX.5.0SP2|9=0000183|35=AE|49=*|56=init-comp|34=71|57=fix|52=20241012-15:36:31.281|571=100067|487=0|856=0|828=0|17=600067|570=N|55=Platinum|48=Platinum|32=1000|31=100|75=20241012|60=20241012-15:36:31.281|10=136|
8=FIX.5.0SP2|9=0000185|35=AE|49=*|56=init-comp|34=72|57=fix|52=20241012-15:36:31.282|571=100068|487=0|856=0|828=0|17=600068|570=N|55=Magnesium|48=Magnesium|32=1000|31=100|75=20241012|60=20241012-15:36:31.281|10=070|
8=FIX.5.0SP2|9=0000177|35=AE|49=*|56=init-comp|34=73|57=fix|52=20241012-15:36:31.283|571=100069|487=0|856=0|828=0|17=600069|570=N|55=Steel|48=Steel|32=1000|31=100|75=20241012|60=20241012-15:36:31.281|10=249|
8=FIX.5.0SP2|9=0000175|35=AE|49=*|56=init-comp|34=74|57=fix|52=20241012-15:36:31.283|571=100070|487=0|856=0|828=0|17=600070|570=N|55=Gold|48=Gold|32=1000|31=100|75=20241012|60=20241012-15:36:31.281|10=250|
8=FIX.5.0SP2|9=0000179|35=AE|49=*|56=init-comp|34=75|57=fix|52=20241012-15:36:31.284|571=100071|487=0|856=0|828=0|17=600071|570=N|55=Silver|48=Silver|32=1000|31=100|75=20241012|60=20241012-15:36:31.281|10=224|
8=FIX.5.0SP2|9=0000183|35=AE|49=*|56=init-comp|34=76|57=fix|52=20241012-15:36:31.285|571=100072|487=0|856=0|828=0|17=600072|570=N|55=Platinum|48=Platinum|32=1000|31=100|75=20241012|60=20241012-15:36:31.281|10=137|
8=FIX.5.0SP2|9=0000185|35=AE|49=*|56=init-comp|34=77|57=fix|52=20241012-15:36:31.285|571=100073|487=0|856=0|828=0|17=600073|570=N|55=Magnesium|48=Magnesium|32=1000|31=100|75=20241012|60=20241012-15:36:31.281|10=070|
8=FIX.5.0SP2|9=0000177|35=AE|49=*|56=init-comp|34=78|57=fix|52=20241012-15:36:33.869|571=100074|487=0|856=0|828=0|17=600074|570=N|55=Steel|48=Steel|32=1000|31=100|75=20241012|60=20241012-15:36:33.868|10=015|
8=FIX.5.0SP2|9=0000175|35=AE|49=*|56=init-comp|34=79|57=fix|52=20241012-15:36:33.869|571=100075|487=0|856=0|828=0|17=600075|570=N|55=Gold|48=Gold|32=1000|31=100|75=20241012|60=20241012-15:36:33.869|10=035|
8=FIX.5.0SP2|9=0000179|35=AE|49=*|56=init-comp|34=80|57=fix|52=20241012-15:36:33.870|571=100076|487=0|856=0|828=0|17=600076|570=N|55=Silver|48=Silver|32=1000|31=100|75=20241012|60=20241012-15:36:33.869|10=247|
8=FIX.5.0SP2|9=0000183|35=AE|49=*|56=init-comp|34=81|57=fix|52=20241012-15:36:33.871|571=100077|487=0|856=0|828=0|17=600077|570=N|55=Platinum|48=Platinum|32=1000|31=100|75=20241012|60=20241012-15:36:33.869|10=160|
8=FIX.5.0SP2|9=0000185|35=AE|49=*|56=init-comp|34=82|57=fix|52=20241012-15:36:33.872|571=100078|487=0|856=0|828=0|17=600078|570=N|55=Magnesium|48=Magnesium|32=1000|31=100|75=20241012|60=20241012-15:36:33.869|10=094|
8=FIX.5.0SP2|9=0000177|35=AE|49=*|56=init-comp|34=83|57=fix|52=20241012-15:36:33.872|571=100079|487=0|856=0|828=0|17=600079|570=N|55=Steel|48=Steel|32=1000|31=100|75=20241012|60=20241012-15:36:33.869|10=016|
8=FIX.5.0SP2|9=0000175|35=AE|49=*|56=init-comp|34=84|57=fix|52=20241012-15:36:33.873|571=100080|487=0|856=0|828=0|17=600080|570=N|55=Gold|48=Gold|32=1000|31=100|75=20241012|60=20241012-15:36:33.869|10=018|
8=FIX.5.0SP2|9=0000179|35=AE|49=*|56=init-comp|34=85|57=fix|52=20241012-15:36:33.874|571=100081|487=0|856=0|828=0|17=600081|570=N|55=Silver|48=Silver|32=1000|31=100|75=20241012|60=20241012-15:36:33.869|10=248|
8=FIX.5.0SP2|9=0000183|35=AE|49=*|56=init-comp|34=86|57=fix|52=20241012-15:36:38.868|571=100082|487=0|856=0|828=0|17=600082|570=N|55=Platinum|48=Platinum|32=1000|31=100|75=20241012|60=20241012-15:36:38.868|10=172|
8=FIX.5.0SP2|9=0000185|35=AE|49=*|56=init-comp|34=87|57=fix|52=20241012-15:36:43.867|571=100083|487=0|856=0|828=0|17=600083|570=N|55=Magnesium|48=Magnesium|32=1000|31=100|75=20241012|60=20241012-15:36:43.867|10=095|
8=FIX.5.0SP2|9=0000177|35=AE|49=*|56=init-comp|34=88|57=fix|52=20241012-15:36:43.868|571=100084|487=0|856=0|828=0|17=600084|570=N|55=Steel|48=Steel|32=1000|31=100|75=20241012|60=20241012-15:36:43.867|10=018|
8=FIX.5.0SP2|9=0000175|35=AE|49=*|56=init-comp|34=89|57=fix|52=20241012-15:36:48.867|571=100085|487=0|856=0|828=0|17=600085|570=N|55=Gold|48=Gold|32=1000|31=100|75=20241012|60=20241012-15:36:48.867|10=046|
8=FIX.5.0SP2|9=0000179|35=AE|49=*|56=init-comp|34=90|57=fix|52=20241012-15:36:48.868|571=100086|487=0|856=0|828=0|17=600086|570=N|55=Silver|48=Silver|32=1000|31=100|75=20241012|60=20241012-15:36:48.867|10=011|
8=FIX.5.0SP2|9=0000183|35=AE|49=*|56=init-comp|34=91|57=fix|52=20241012-15:36:48.869|571=100087|487=0|856=0|828=0|17=600087|570=N|55=Platinum|48=Platinum|32=1000|31=100|75=20241012|60=20241012-15:36:48.867|10=180|
8=FIX.5.0SP2|9=0000104|35=0|49=init-comp|56=accept-comp|34=5|57=fix|52=20241012-15:36:51.027|112=heartbeat-10/12/2024 15:36:51|10=192|
8=FIX.5.0SP2|9=0000185|35=AE|49=*|56=init-comp|34=92|57=fix|52=20241012-15:36:53.867|571=100088|487=0|856=0|828=0|17=600088|570=N|55=Magnesium|48=Magnesium|32=1000|31=100|75=20241012|60=20241012-15:36:53.867|10=103|
8=FIX.5.0SP2|9=0000177|35=AE|49=*|56=init-comp|34=93|57=fix|52=20241012-15:36:53.868|571=100089|487=0|856=0|828=0|17=600089|570=N|55=Steel|48=Steel|32=1000|31=100|75=20241012|60=20241012-15:36:53.867|10=026|
8=FIX.5.0SP2|9=0000175|35=AE|49=*|56=init-comp|34=94|57=fix|52=20241012-15:36:53.869|571=100090|487=0|856=0|828=0|17=600090|570=N|55=Gold|48=Gold|32=1000|31=100|75=20241012|60=20241012-15:36:53.867|10=028|
8=FIX.5.0SP2|9=0000179|35=AE|49=*|56=init-comp|34=95|57=fix|52=20241012-15:36:53.870|571=100091|487=0|856=0|828=0|17=600091|570=N|55=Silver|48=Silver|32=1000|31=100|75=20241012|60=20241012-15:36:53.867|10=249|
8=FIX.5.0SP2|9=0000117|35=A|49=init-comp|56=accept-comp|34=1|57=fix|52=20241012-15:40:46.757|98=0|108=30|141=Y|553=js-client|554=pwd-client|10=245|
8=FIX.5.0SP2|9=0000117|35=A|49=accept-comp|56=init-comp|34=1|57=fix|52=20241012-15:40:46.785|98=0|108=30|141=Y|553=js-server|554=pwd-server|10=038|
8=FIX.5.0SP2|9=0000154|35=AD|49=init-comp|56=accept-comp|34=2|57=fix|52=20241012-15:40:46.789|568=all-trades|569=0|263=1|580=2|60=20241012-15:40:46.789|60=20241013-15:40:46.789|10=109|
8=FIX.5.0SP2|9=0000104|35=AQ|49=accept-comp|56=init-comp|34=2|57=fix|52=20241012-15:40:46.795|568=all-trades|569=0|749=0|750=0|10=192|
8=FIX.5.0SP2|9=0000184|35=AE|49=accept-comp|56=init-comp|34=3|57=fix|52=20241012-15:40:46.798|571=100000|487=0|856=0|828=0|17=600000|570=N|55=Gold|48=Gold|32=1000|31=100|75=20241012|60=20241012-15:40:46.798|10=240|
8=FIX.5.0SP2|9=0000188|35=AE|49=accept-comp|56=init-comp|34=4|57=fix|52=20241012-15:40:46.806|571=100001|487=0|856=0|828=0|17=600001|570=N|55=Silver|48=Silver|32=1000|31=100|75=20241012|60=20241012-15:40:46.798|10=203|
8=FIX.5.0SP2|9=0000192|35=AE|49=accept-comp|56=init-comp|34=5|57=fix|52=20241012-15:40:46.807|571=100002|487=0|856=0|828=0|17=600002|570=N|55=Platinum|48=Platinum|32=1000|31=100|75=20241012|60=20241012-15:40:46.798|10=116|
8=FIX.5.0SP2|9=0000194|35=AE|49=accept-comp|56=init-comp|34=6|57=fix|52=20241012-15:40:46.808|571=100003|487=0|856=0|828=0|17=600003|570=N|55=Magnesium|48=Magnesium|32=1000|31=100|75=20241012|60=20241012-15:40:46.798|10=050|
8=FIX.5.0SP2|9=0000186|35=AE|49=accept-comp|56=init-comp|34=7|57=fix|52=20241012-15:40:46.808|571=100004|487=0|856=0|828=0|17=600004|570=N|55=Steel|48=Steel|32=1000|31=100|75=20241012|60=20241012-15:40:46.798|10=228|
8=FIX.5.0SP2|9=0000184|35=AE|49=accept-comp|56=init-comp|34=8|57=fix|52=20241012-15:40:46.809|571=100005|487=0|856=0|828=0|17=600005|570=N|55=Gold|48=Gold|32=1000|31=100|75=20241012|60=20241012-15:40:46.798|10=248|
8=FIX.5.0SP2|9=0000188|35=AE|49=accept-comp|56=init-comp|34=9|57=fix|52=20241012-15:40:46.810|571=100006|487=0|856=0|828=0|17=600006|570=N|55=Silver|48=Silver|32=1000|31=100|75=20241012|60=20241012-15:40:46.798|10=213|
8=FIX.5.0SP2|9=0000193|35=AE|49=accept-comp|56=init-comp|34=10|57=fix|52=20241012-15:40:46.810|571=100007|487=0|856=0|828=0|17=600007|570=N|55=Platinum|48=Platinum|32=1000|31=100|75=20241012|60=20241012-15:40:46.798|10=165|
8=FIX.5.0SP2|9=0000195|35=AE|49=accept-comp|56=init-comp|34=11|57=fix|52=20241012-15:40:46.811|571=100008|487=0|856=0|828=0|17=600008|570=N|55=Magnesium|48=Magnesium|32=1000|31=100|75=20241012|60=20241012-15:40:46.798|10=099|
8=FIX.5.0SP2|9=0000187|35=AE|49=accept-comp|56=init-comp|34=12|57=fix|52=20241012-15:40:46.811|571=100009|487=0|856=0|828=0|17=600009|570=N|55=Steel|48=Steel|32=1000|31=100|75=20241012|60=20241012-15:40:46.798|10=021|
8=FIX.5.0SP2|9=0000105|35=AQ|49=accept-comp|56=init-comp|34=13|57=fix|52=20241012-15:40:46.812|568=all-trades|569=0|749=0|750=1|10=234|
8=FIX.5.0SP2|9=0000185|35=AE|49=accept-comp|56=init-comp|34=14|57=fix|52=20241012-15:40:51.818|571=100010|487=0|856=0|828=0|17=600010|570=N|55=Gold|48=Gold|32=1000|31=100|75=20241012|60=20241012-15:40:51.818|10=015|
8=FIX.5.0SP2|9=0000189|35=AE|49=accept-comp|56=init-comp|34=15|57=fix|52=20241012-15:40:56.823|571=100011|487=0|856=0|828=0|17=600011|570=N|55=Silver|48=Silver|32=1000|31=100|75=20241012|60=20241012-15:40:56.823|10=246|
8=FIX.5.0SP2|9=0000193|35=AE|49=accept-comp|56=init-comp|34=16|57=fix|52=20241012-15:40:56.824|571=100012|487=0|856=0|828=0|17=600012|570=N|55=Platinum|48=Platinum|32=1000|31=100|75=20241012|60=20241012-15:40:56.823|10=159|
8=FIX.5.0SP2|9=0000195|35=AE|49=accept-comp|56=init-comp|34=17|57=fix|52=20241012-15:41:01.817|571=100013|487=0|856=0|828=0|17=600013|570=N|55=Magnesium|48=Magnesium|32=1000|31=100|75=20241012|60=20241012-15:41:01.817|10=079|
8=FIX.5.0SP2|9=0000187|35=AE|49=accept-comp|56=init-comp|34=18|57=fix|52=20241012-15:41:01.818|571=100014|487=0|856=0|828=0|17=600014|570=N|55=Steel|48=Steel|32=1000|31=100|75=20241012|60=20241012-15:41:01.817|10=002|
8=FIX.5.0SP2|9=0000185|35=AE|49=accept-comp|56=init-comp|34=19|57=fix|52=20241012-15:41:01.818|571=100015|487=0|856=0|828=0|17=600015|570=N|55=Gold|48=Gold|32=1000|31=100|75=20241012|60=20241012-15:41:01.817|10=021|
8=FIX.5.0SP2|9=0000189|35=AE|49=accept-comp|56=init-comp|34=20|57=fix|52=20241012-15:41:06.818|571=100016|487=0|856=0|828=0|17=600016|570=N|55=Silver|48=Silver|32=1000|31=100|75=20241012|60=20241012-15:41:06.818|10=252|
8=FIX.5.0SP2|9=0000193|35=AE|49=accept-comp|56=init-comp|34=21|57=fix|52=20241012-15:41:06.819|571=100017|487=0|856=0|828=0|17=600017|570=N|55=Platinum|48=Platinum|32=1000|31=100|75=20241012|60=20241012-15:41:06.818|10=165|
8=FIX.5.0SP2|9=0000195|35=AE|49=accept-comp|56=init-comp|34=22|57=fix|52=20241012-15:41:06.819|571=100018|487=0|856=0|828=0|17=600018|570=N|55=Magnesium|48=Magnesium|32=1000|31=100|75=20241012|60=20241012-15:41:06.818|10=098|
8=FIX.5.0SP2|9=0000187|35=AE|49=accept-comp|56=init-comp|34=23|57=fix|52=20241012-15:41:06.820|571=100019|487=0|856=0|828=0|17=600019|570=N|55=Steel|48=Steel|32=1000|31=100|75=20241012|60=20241012-15:41:06.818|10=012|
8=FIX.5.0SP2|9=0000185|35=AE|49=accept-comp|56=init-comp|34=24|57=fix|52=20241012-15:41:11.819|571=100020|487=0|856=0|828=0|17=600020|570=N|55=Gold|48=Gold|32=1000|31=100|75=20241012|60=20241012-15:41:11.819|10=014|
8=FIX.5.0SP2|9=0000189|35=AE|49=accept-comp|56=init-comp|34=25|57=fix|52=20241012-15:41:11.820|571=100021|487=0|856=0|828=0|17=600021|570=N|55=Silver|48=Silver|32=1000|31=100|75=20241012|60=20241012-15:41:11.819|10=235|
8=FIX.5.0SP2|9=0000193|35=AE|49=accept-comp|56=init-comp|34=26|57=fix|52=20241012-15:41:11.821|571=100022|487=0|856=0|828=0|17=600022|570=N|55=Platinum|48=Platinum|32=1000|31=100|75=20241012|60=20241012-15:41:11.819|10=148|
8=FIX.5.0SP2|9=0000195|35=AE|49=accept-comp|56=init-comp|34=27|57=fix|52=20241012-15:41:11.822|571=100023|487=0|856=0|828=0|17=600023|570=N|55=Magnesium|48=Magnesium|32=1000|31=100|75=20241012|60=20241012-15:41:11.819|10=082|
8=FIX.5.0SP2|9=0000187|35=AE|49=accept-comp|56=init-comp|34=28|57=fix|52=20241012-15:41:11.822|571=100024|487=0|856=0|828=0|17=600024|570=N|55=Steel|48=Steel|32=1000|31=100|75=20241012|60=20241012-15:41:11.819|10=004|
8=FIX.5.0SP2|9=0000185|35=AE|49=accept-comp|56=init-comp|34=29|57=fix|52=20241012-15:41:14.418|571=100025|487=0|856=0|828=0|17=600025|570=N|55=Gold|48=Gold|32=1000|31=100|75=20241012|60=20241012-15:41:14.418|10=025|
8=FIX.5.0SP2|9=0000189|35=AE|49=accept-comp|56=init-comp|34=30|57=fix|52=20241012-15:41:14.419|571=100026|487=0|856=0|828=0|17=600026|570=N|55=Silver|48=Silver|32=1000|31=100|75=20241012|60=20241012-15:41:14.418|10=246|
8=FIX.5.0SP2|9=0000193|35=AE|49=accept-comp|56=init-comp|34=31|57=fix|52=20241012-15:41:14.419|571=100027|487=0|856=0|828=0|17=600027|570=N|55=Platinum|48=Platinum|32=1000|31=100|75=20241012|60=20241012-15:41:14.418|10=158|
8=FIX.5.0SP2|9=0000195|35=AE|49=accept-comp|56=init-comp|34=32|57=fix|52=20241012-15:41:14.420|571=100028|487=0|856=0|828=0|17=600028|570=N|55=Magnesium|48=Magnesium|32=1000|31=100|75=20241012|60=20241012-15:41:14.418|10=083|
8=FIX.5.0SP2|9=0000187|35=AE|49=accept-comp|56=init-comp|34=33|57=fix|52=20241012-15:41:14.421|571=100029|487=0|856=0|828=0|17=600029|570=N|55=Steel|48=Steel|32=1000|31=100|75=20241012|60=20241012-15:41:14.418|10=006|
8=FIX.5.0SP2|9=0000185|35=AE|49=accept-comp|56=init-comp|34=34|57=fix|52=20241012-15:41:14.422|571=100030|487=0|856=0|828=0|17=600030|570=N|55=Gold|48=Gold|32=1000|31=100|75=20241012|60=20241012-15:41:14.418|10=008|
8=FIX.5.0SP2|9=0000104|35=0|49=init-comp|56=accept-comp|34=3|57=fix|52=20241012-15:41:16.055|112=heartbeat-10/12/2024 15:41:16|10=185|
8=FIX.5.0SP2|9=0000189|35=AE|49=accept-comp|56=init-comp|34=35|57=fix|52=20241012-15:41:19.409|571=100031|487=0|856=0|828=0|17=600031|570=N|55=Silver|48=Silver|32=1000|31=100|75=20241012|60=20241012-15:41:19.409|10=252|
8=FIX.5.0SP2|9=0000193|35=AE|49=accept-comp|56=init-comp|34=36|57=fix|52=20241012-15:41:19.410|571=100032|487=0|856=0|828=0|17=600032|570=N|55=Platinum|48=Platinum|32=1000|31=100|75=20241012|60=20241012-15:41:19.409|10=156|
8=FIX.5.0SP2|9=0000195|35=AE|49=accept-comp|56=init-comp|34=37|57=fix|52=20241012-15:41:19.411|571=100033|487=0|856=0|828=0|17=600033|570=N|55=Magnesium|48=Magnesium|32=1000|31=100|75=20241012|60=20241012-15:41:19.409|10=090|
8=FIX.5.0SP2|9=0000187|35=AE|49=accept-comp|56=init-comp|34=38|57=fix|52=20241012-15:41:19.412|571=100034|487=0|856=0|828=0|17=600034|570=N|55=Steel|48=Steel|32=1000|31=100|75=20241012|60=20241012-15:41:19.409|10=013|
8=FIX.5.0SP2|9=0000185|35=AE|49=accept-comp|56=init-comp|34=39|57=fix|52=20241012-15:41:19.412|571=100035|487=0|856=0|828=0|17=600035|570=N|55=Gold|48=Gold|32=1000|31=100|75=20241012|60=20241012-15:41:19.409|10=032|
8=FIX.5.0SP2|9=0000189|35=AE|49=accept-comp|56=init-comp|34=40|57=fix|52=20241012-15:41:19.414|571=100036|487=0|856=0|828=0|17=600036|570=N|55=Silver|48=Silver|32=1000|31=100|75=20241012|60=20241012-15:41:19.409|10=254|
8=FIX.5.0SP2|9=0000193|35=AE|49=accept-comp|56=init-comp|34=41|57=fix|52=20241012-15:41:19.414|571=100037|487=0|856=0|828=0|17=600037|570=N|55=Platinum|48=Platinum|32=1000|31=100|75=20241012|60=20241012-15:41:19.409|10=166|
8=FIX.5.0SP2|9=0000195|35=AE|49=accept-comp|56=init-comp|34=42|57=fix|52=20241012-15:41:24.410|571=100038|487=0|856=0|828=0|17=600038|570=N|55=Magnesium|48=Magnesium|32=1000|31=100|75=20241012|60=20241012-15:41:24.410|10=079|
8=FIX.5.0SP2|9=0000187|35=AE|49=accept-comp|56=init-comp|34=43|57=fix|52=20241012-15:41:24.411|571=100039|487=0|856=0|828=0|17=600039|570=N|55=Steel|48=Steel|32=1000|31=100|75=20241012|60=20241012-15:41:24.410|10=002|
8=FIX.5.0SP2|9=0000185|35=AE|49=accept-comp|56=init-comp|34=44|57=fix|52=20241012-15:41:24.412|571=100040|487=0|856=0|828=0|17=600040|570=N|55=Gold|48=Gold|32=1000|31=100|75=20241012|60=20241012-15:41:24.410|10=004|
8=FIX.5.0SP2|9=0000189|35=AE|49=accept-comp|56=init-comp|34=45|57=fix|52=20241012-15:41:24.413|571=100041|487=0|856=0|828=0|17=600041|570=N|55=Silver|48=Silver|32=1000|31=100|75=20241012|60=20241012-15:41:24.410|10=234|
8=FIX.5.0SP2|9=0000193|35=AE|49=accept-comp|56=init-comp|34=46|57=fix|52=20241012-15:41:24.414|571=100042|487=0|856=0|828=0|17=600042|570=N|55=Platinum|48=Platinum|32=1000|31=100|75=20241012|60=20241012-15:41:24.410|10=147|
8=FIX.5.0SP2|9=0000195|35=AE|49=accept-comp|56=init-comp|34=47|57=fix|52=20241012-15:41:24.415|571=100043|487=0|856=0|828=0|17=600043|570=N|55=Magnesium|48=Magnesium|32=1000|31=100|75=20241012|60=20241012-15:41:24.410|10=081|
8=FIX.5.0SP2|9=0000187|35=AE|49=accept-comp|56=init-comp|34=48|57=fix|52=20241012-15:41:24.416|571=100044|487=0|856=0|828=0|17=600044|570=N|55=Steel|48=Steel|32=1000|31=100|75=20241012|60=20241012-15:41:24.410|10=004|
8=FIX.5.0SP2|9=0000185|35=AE|49=accept-comp|56=init-comp|34=49|57=fix|52=20241012-15:41:24.417|571=100045|487=0|856=0|828=0|17=600045|570=N|55=Gold|48=Gold|32=1000|31=100|75=20241012|60=20241012-15:41:24.410|10=024|
8=FIX.5.0SP2|9=0000189|35=AE|49=accept-comp|56=init-comp|34=50|57=fix|52=20241012-15:41:29.405|571=100046|487=0|856=0|828=0|17=600046|570=N|55=Silver|48=Silver|32=1000|31=100|75=20241012|60=20241012-15:41:29.405|10=255|
8=FIX.5.0SP2|9=0000193|35=AE|49=accept-comp|56=init-comp|34=51|57=fix|52=20241012-15:41:34.411|571=100047|487=0|856=0|828=0|17=600047|570=N|55=Platinum|48=Platinum|32=1000|31=100|75=20241012|60=20241012-15:41:34.411|10=153|
8=FIX.5.0SP2|9=0000195|35=AE|49=accept-comp|56=init-comp|34=52|57=fix|52=20241012-15:41:34.411|571=100048|487=0|856=0|828=0|17=600048|570=N|55=Magnesium|48=Magnesium|32=1000|31=100|75=20241012|60=20241012-15:41:34.411|10=086|
8=FIX.5.0SP2|9=0000187|35=AE|49=accept-comp|56=init-comp|34=53|57=fix|52=20241012-15:41:39.412|571=100049|487=0|856=0|828=0|17=600049|570=N|55=Steel|48=Steel|32=1000|31=100|75=20241012|60=20241012-15:41:39.412|10=020|
8=FIX.5.0SP2|9=0000185|35=AE|49=accept-comp|56=init-comp|34=54|57=fix|52=20241012-15:41:39.413|571=100050|487=0|856=0|828=0|17=600050|570=N|55=Gold|48=Gold|32=1000|31=100|75=20241012|60=20241012-15:41:39.412|10=022|
8=FIX.5.0SP2|9=0000189|35=AE|49=accept-comp|56=init-comp|34=55|57=fix|52=20241012-15:41:39.414|571=100051|487=0|856=0|828=0|17=600051|570=N|55=Silver|48=Silver|32=1000|31=100|75=20241012|60=20241012-15:41:39.412|10=252|
8=FIX.5.0SP2|9=0000193|35=AE|49=accept-comp|56=init-comp|34=56|57=fix|52=20241012-15:41:44.413|571=100052|487=0|856=0|828=0|17=600052|570=N|55=Platinum|48=Platinum|32=1000|31=100|75=20241012|60=20241012-15:41:44.413|10=156|
8=FIX.5.0SP2|9=0000195|35=AE|49=accept-comp|56=init-comp|34=57|57=fix|52=20241012-15:41:44.414|571=100053|487=0|856=0|828=0|17=600053|570=N|55=Magnesium|48=Magnesium|32=1000|31=100|75=20241012|60=20241012-15:41:44.413|10=090|
8=FIX.5.0SP2|9=0000187|35=AE|49=accept-comp|56=init-comp|34=58|57=fix|52=20241012-15:41:44.414|571=100054|487=0|856=0|828=0|17=600054|570=N|55=Steel|48=Steel|32=1000|31=100|75=20241012|60=20241012-15:41:44.413|10=012|
8=FIX.5.0SP2|9=0000185|35=AE|49=accept-comp|56=init-comp|34=59|57=fix|52=20241012-15:41:44.415|571=100055|487=0|856=0|828=0|17=600055|570=N|55=Gold|48=Gold|32=1000|31=100|75=20241012|60=20241012-15:41:44.413|10=032|
8=FIX.5.0SP2|9=0000104|35=0|49=init-comp|56=accept-comp|34=4|57=fix|52=20241012-15:41:46.003|112=heartbeat-10/12/2024 15:41:46|10=185|
8=FIX.5.0SP2|9=0000189|35=AE|49=accept-comp|56=init-comp|34=60|57=fix|52=20241012-15:41:47.065|571=100056|487=0|856=0|828=0|17=600056|570=N|55=Silver|48=Silver|32=1000|31=100|75=20241012|60=20241012-15:41:47.065|10=006|
8=FIX.5.0SP2|9=0000193|35=AE|49=accept-comp|56=init-comp|34=61|57=fix|52=20241012-15:41:47.065|571=100057|487=0|856=0|828=0|17=600057|570=N|55=Platinum|48=Platinum|32=1000|31=100|75=20241012|60=20241012-15:41:47.065|10=174|
8=FIX.5.0SP2|9=0000195|35=AE|49=accept-comp|56=init-comp|34=62|57=fix|52=20241012-15:41:47.066|571=100058|487=0|856=0|828=0|17=600058|570=N|55=Magnesium|48=Magnesium|32=1000|31=100|75=20241012|60=20241012-15:41:47.065|10=108|
8=FIX.5.0SP2|9=0000187|35=AE|49=accept-comp|56=init-comp|34=63|57=fix|52=20241012-15:41:47.067|571=100059|487=0|856=0|828=0|17=600059|570=N|55=Steel|48=Steel|32=1000|31=100|75=20241012|60=20241012-15:41:47.065|10=031|
8=FIX.5.0SP2|9=0000185|35=AE|49=accept-comp|56=init-comp|34=64|57=fix|52=20241012-15:41:47.068|571=100060|487=0|856=0|828=0|17=600060|570=N|55=Gold|48=Gold|32=1000|31=100|75=20241012|60=20241012-15:41:47.065|10=033|
8=FIX.5.0SP2|9=0000189|35=AE|49=accept-comp|56=init-comp|34=65|57=fix|52=20241012-15:41:52.069|571=100061|487=0|856=0|828=0|17=600061|570=N|55=Silver|48=Silver|32=1000|31=100|75=20241012|60=20241012-15:41:52.069|10=003|
8=FIX.5.0SP2|9=0000193|35=AE|49=accept-comp|56=init-comp|34=66|57=fix|52=20241012-15:41:52.070|571=100062|487=0|856=0|828=0|17=600062|570=N|55=Platinum|48=Platinum|32=1000|31=100|75=20241012|60=20241012-15:41:52.069|10=163|
8=FIX.5.0SP2|9=0000195|35=AE|49=accept-comp|56=init-comp|34=67|57=fix|52=20241012-15:41:52.071|571=100063|487=0|856=0|828=0|17=600063|570=N|55=Magnesium|48=Magnesium|32=1000|31=100|75=20241012|60=20241012-15:41:52.069|10=097|
8=FIX.5.0SP2|9=0000187|35=AE|49=accept-comp|56=init-comp|34=68|57=fix|52=20241012-15:41:52.072|571=100064|487=0|856=0|828=0|17=600064|570=N|55=Steel|48=Steel|32=1000|31=100|75=20241012|60=20241012-15:41:52.069|10=020|
8=FIX.5.0SP2|9=0000185|35=AE|49=accept-comp|56=init-comp|34=69|57=fix|52=20241012-15:41:52.073|571=100065|487=0|856=0|828=0|17=600065|570=N|55=Gold|48=Gold|32=1000|31=100|75=20241012|60=20241012-15:41:52.069|10=040|
8=FIX.5.0SP2|9=0000189|35=AE|49=accept-comp|56=init-comp|34=70|57=fix|52=20241012-15:41:52.073|571=100066|487=0|856=0|828=0|17=600066|570=N|55=Silver|48=Silver|32=1000|31=100|75=20241012|60=20241012-15:41:52.069|10=004|
8=FIX.5.0SP2|9=0000193|35=AE|49=accept-comp|56=init-comp|34=71|57=fix|52=20241012-15:41:57.065|571=100067|487=0|856=0|828=0|17=600067|570=N|55=Platinum|48=Platinum|32=1000|31=100|75=20241012|60=20241012-15:41:57.065|10=179|
8=FIX.5.0SP2|9=0000195|35=AE|49=accept-comp|56=init-comp|34=72|57=fix|52=20241012-15:41:57.067|571=100068|487=0|856=0|828=0|17=600068|570=N|55=Magnesium|48=Magnesium|32=1000|31=100|75=20241012|60=20241012-15:41:57.065|10=114|
8=FIX.5.0SP2|9=0000187|35=AE|49=accept-comp|56=init-comp|34=73|57=fix|52=20241012-15:41:57.067|571=100069|487=0|856=0|828=0|17=600069|570=N|55=Steel|48=Steel|32=1000|31=100|75=20241012|60=20241012-15:41:57.065|10=036|
8=FIX.5.0SP2|9=0000185|35=AE|49=accept-comp|56=init-comp|34=74|57=fix|52=20241012-15:41:57.068|571=100070|487=0|856=0|828=0|17=600070|570=N|55=Gold|48=Gold|32=1000|31=100|75=20241012|60=20241012-15:41:57.065|10=038|
8=FIX.5.0SP2|9=0000189|35=AE|49=accept-comp|56=init-comp|34=75|57=fix|52=20241012-15:41:57.069|571=100071|487=0|856=0|828=0|17=600071|570=N|55=Silver|48=Silver|32=1000|31=100|75=20241012|60=20241012-15:41:57.065|10=012|
8=FIX.5.0SP2|9=0000193|35=AE|49=accept-comp|56=init-comp|34=76|57=fix|52=20241012-15:41:57.069|571=100072|487=0|856=0|828=0|17=600072|570=N|55=Platinum|48=Platinum|32=1000|31=100|75=20241012|60=20241012-15:41:57.065|10=180|
8=FIX.5.0SP2|9=0000195|35=AE|49=accept-comp|56=init-comp|34=77|57=fix|52=20241012-15:41:57.070|571=100073|487=0|856=0|828=0|17=600073|570=N|55=Magnesium|48=Magnesium|32=1000|31=100|75=20241012|60=20241012-15:41:57.065|10=105|
8=FIX.5.0SP2|9=0000187|35=AE|49=accept-comp|56=init-comp|34=78|57=fix|52=20241012-15:42:02.056|571=100074|487=0|856=0|828=0|17=600074|570=N|55=Steel|48=Steel|32=1000|31=100|75=20241012|60=20241012-15:42:02.056|10=013|
8=FIX.5.0SP2|9=0000185|35=AE|49=accept-comp|56=init-comp|34=79|57=fix|52=20241012-15:42:02.057|571=100075|487=0|856=0|828=0|17=600075|570=N|55=Gold|48=Gold|32=1000|31=100|75=20241012|60=20241012-15:42:02.056|10=033|
8=FIX.5.0SP2|9=0000189|35=AE|49=accept-comp|56=init-comp|34=80|57=fix|52=20241012-15:42:02.058|571=100076|487=0|856=0|828=0|17=600076|570=N|55=Silver|48=Silver|32=1000|31=100|75=20241012|60=20241012-15:42:02.056|10=254|
8=FIX.5.0SP2|9=0000193|35=AE|49=accept-comp|56=init-comp|34=81|57=fix|52=20241012-15:42:02.059|571=100077|487=0|856=0|828=0|17=600077|570=N|55=Platinum|48=Platinum|32=1000|31=100|75=20241012|60=20241012-15:42:02.056|10=167|
8=FIX.5.0SP2|9=0000195|35=AE|49=accept-comp|56=init-comp|34=82|57=fix|52=20241012-15:42:02.060|571=100078|487=0|856=0|828=0|17=600078|570=N|55=Magnesium|48=Magnesium|32=1000|31=100|75=20241012|60=20241012-15:42:02.056|10=092|
8=FIX.5.0SP2|9=0000187|35=AE|49=accept-comp|56=init-comp|34=83|57=fix|52=20241012-15:42:02.060|571=100079|487=0|856=0|828=0|17=600079|570=N|55=Steel|48=Steel|32=1000|31=100|75=20241012|60=20241012-15:42:02.056|10=014|
8=FIX.5.0SP2|9=0000185|35=AE|49=accept-comp|56=init-comp|34=84|57=fix|52=20241012-15:42:02.061|571=100080|487=0|856=0|828=0|17=600080|570=N|55=Gold|48=Gold|32=1000|31=100|75=20241012|60=20241012-15:42:02.056|10=016|
8=FIX.5.0SP2|9=0000189|35=AE|49=accept-comp|56=init-comp|34=85|57=fix|52=20241012-15:42:02.062|571=100081|487=0|856=0|828=0|17=600081|570=N|55=Silver|48=Silver|32=1000|31=100|75=20241012|60=20241012-15:42:02.056|10=246|
8=FIX.5.0SP2|9=0000193|35=AE|49=accept-comp|56=init-comp|34=86|57=fix|52=20241012-15:42:07.063|571=100082|487=0|856=0|828=0|17=600082|570=N|55=Platinum|48=Platinum|32=1000|31=100|75=20241012|60=20241012-15:42:07.063|10=167|
8=FIX.5.0SP2|9=0000195|35=AE|49=accept-comp|56=init-comp|34=87|57=fix|52=20241012-15:42:12.066|571=100083|487=0|856=0|828=0|17=600083|570=N|55=Magnesium|48=Magnesium|32=1000|31=100|75=20241012|60=20241012-15:42:12.066|10=098|
8=FIX.5.0SP2|9=0000187|35=AE|49=accept-comp|56=init-comp|34=88|57=fix|52=20241012-15:42:12.066|571=100084|487=0|856=0|828=0|17=600084|570=N|55=Steel|48=Steel|32=1000|31=100|75=20241012|60=20241012-15:42:12.066|10=020|
8=FIX.5.0SP2|9=0000185|35=AE|49=accept-comp|56=init-comp|34=89|57=fix|52=20241012-15:42:14.627|571=100085|487=0|856=0|828=0|17=600085|570=N|55=Gold|48=Gold|32=1000|31=100|75=20241012|60=20241012-15:42:14.627|10=049|
8=FIX.5.0SP2|9=0000189|35=AE|49=accept-comp|56=init-comp|34=90|57=fix|52=20241012-15:42:14.627|571=100086|487=0|856=0|828=0|17=600086|570=N|55=Silver|48=Silver|32=1000|31=100|75=20241012|60=20241012-15:42:14.627|10=013|
8=FIX.5.0SP2|9=0000193|35=AE|49=accept-comp|56=init-comp|34=91|57=fix|52=20241012-15:42:14.628|571=100087|487=0|856=0|828=0|17=600087|570=N|55=Platinum|48=Platinum|32=1000|31=100|75=20241012|60=20241012-15:42:14.627|10=182|
8=FIX.5.0SP2|9=0000104|35=0|49=init-comp|56=accept-comp|34=5|57=fix|52=20241012-15:42:16.076|112=heartbeat-10/12/2024 15:42:16|10=192|
8=FIX.5.0SP2|9=0000195|35=AE|49=accept-comp|56=init-comp|34=92|57=fix|52=20241012-15:42:19.626|571=100088|487=0|856=0|828=0|17=600088|570=N|55=Magnesium|48=Magnesium|32=1000|31=100|75=20241012|60=20241012-15:42:19.626|10=122|
8=FIX.5.0SP2|9=0000187|35=AE|49=accept-comp|56=init-comp|34=93|57=fix|52=20241012-15:42:19.627|571=100089|487=0|856=0|828=0|17=600089|570=N|55=Steel|48=Steel|32=1000|31=100|75=20241012|60=20241012-15:42:19.626|10=045|
8=FIX.5.0SP2|9=0000185|35=AE|49=accept-comp|56=init-comp|34=94|57=fix|52=20241012-15:42:19.627|571=100090|487=0|856=0|828=0|17=600090|570=N|55=Gold|48=Gold|32=1000|31=100|75=20241012|60=20241012-15:42:19.626|10=046|
8=FIX.5.0SP2|9=0000189|35=AE|49=accept-comp|56=init-comp|34=95|57=fix|52=20241012-15:42:19.628|571=100091|487=0|856=0|828=0|17=600091|570=N|55=Silver|48=Silver|32=1000|31=100|75=20241012|60=20241012-15:42:19.626|10=020|
8=FIX.5.0SP2|9=0000193|35=AE|49=accept-comp|56=init-comp|34=96|57=fix|52=20241012-15:42:24.631|571=100092|487=0|856=0|828=0|17=600092|570=N|55=Platinum|48=Platinum|32=1000|31=100|75=20241012|60=20241012-15:42:24.631|10=170|
8=FIX.5.0SP2|9=0000195|35=AE|49=accept-comp|56=init-comp|34=97|57=fix|52=20241012-15:42:24.632|571=100093|487=0|856=0|828=0|17=600093|570=N|55=Magnesium|48=Magnesium|32=1000|31=100|75=20241012|60=20241012-15:42:24.631|10=104|
8=FIX.5.0SP2|9=0000187|35=AE|49=accept-comp|56=init-comp|34=98|57=fix|52=20241012-15:42:24.632|571=100094|487=0|856=0|828=0|17=600094|570=N|55=Steel|48=Steel|32=1000|31=100|75=20241012|60=20241012-15:42:24.631|10=026|
8=FIX.5.0SP2|9=0000185|35=AE|49=accept-comp|56=init-comp|34=99|57=fix|52=20241012-15:42:24.633|571=100095|487=0|856=0|828=0|17=600095|570=N|55=Gold|48=Gold|32=1000|31=100|75=20241012|60=20241012-15:42:24.631|10=046|
8=FIX.5.0SP2|9=0000190|35=AE|49=accept-comp|56=init-comp|34=100|57=fix|52=20241012-15:42:24.633|571=100096|487=0|856=0|828=0|17=600096|570=N|55=Silver|48=Silver|32=1000|31=100|75=20241012|60=20241012-15:42:24.631|10=041|
8=FIX.5.0SP2|9=0000194|35=AE|49=accept-comp|56=init-comp|34=101|57=fix|52=20241012-15:42:29.628|571=100097|487=0|856=0|828=0|17=600097|570=N|55=Platinum|48=Platinum|32=1000|31=100|75=20241012|60=20241012-15:42:29.628|10=238|
8=FIX.5.0SP2|9=0000196|35=AE|49=accept-comp|56=init-comp|34=102|57=fix|52=20241012-15:42:29.628|571=100098|487=0|856=0|828=0|17=600098|570=N|55=Magnesium|48=Magnesium|32=1000|31=100|75=20241012|60=20241012-15:42:29.628|10=171|
8=FIX.5.0SP2|9=0000188|35=AE|49=accept-comp|56=init-comp|34=103|57=fix|52=20241012-15:42:29.629|571=100099|487=0|856=0|828=0|17=600099|570=N|55=Steel|48=Steel|32=1000|31=100|75=20241012|60=20241012-15:42:29.628|10=094|
8=FIX.5.0SP2|9=0000186|35=AE|49=accept-comp|56=init-comp|34=104|57=fix|52=20241012-15:42:29.629|571=100100|487=0|856=0|828=0|17=600100|570=N|55=Gold|48=Gold|32=1000|31=100|75=20241012|60=20241012-15:42:29.628|10=077|
8=FIX.5.0SP2|9=0000190|35=AE|49=accept-comp|56=init-comp|34=105|57=fix|52=20241012-15:42:29.630|571=100101|487=0|856=0|828=0|17=600101|570=N|55=Silver|48=Silver|32=1000|31=100|75=20241012|60=20241012-15:42:29.628|10=033|
8=FIX.5.0SP2|9=0000194|35=AE|49=accept-comp|56=init-comp|34=106|57=fix|52=20241012-15:42:29.631|571=100102|487=0|856=0|828=0|17=600102|570=N|55=Platinum|48=Platinum|32=1000|31=100|75=20241012|60=20241012-15:42:29.628|10=211|
8=FIX.5.0SP2|9=0000196|35=AE|49=accept-comp|56=init-comp|34=107|57=fix|52=20241012-15:42:34.628|571=100103|487=0|856=0|828=0|17=600103|570=N|55=Magnesium|48=Magnesium|32=1000|31=100|75=20241012|60=20241012-15:42:34.628|10=142|
8=FIX.5.0SP2|9=0000188|35=AE|49=accept-comp|56=init-comp|34=108|57=fix|52=20241012-15:42:34.629|571=100104|487=0|856=0|828=0|17=600104|570=N|55=Steel|48=Steel|32=1000|31=100|75=20241012|60=20241012-15:42:34.628|10=065|
8=FIX.5.0SP2|9=0000186|35=AE|49=accept-comp|56=init-comp|34=109|57=fix|52=20241012-15:42:34.629|571=100105|487=0|856=0|828=0|17=600105|570=N|55=Gold|48=Gold|32=1000|31=100|75=20241012|60=20241012-15:42:34.628|10=084|
8=FIX.5.0SP2|9=0000190|35=AE|49=accept-comp|56=init-comp|34=110|57=fix|52=20241012-15:42:34.630|571=100106|487=0|856=0|828=0|17=600106|570=N|55=Silver|48=Silver|32=1000|31=100|75=20241012|60=20241012-15:42:34.628|10=031|
8=FIX.5.0SP2|9=0000194|35=AE|49=accept-comp|56=init-comp|34=111|57=fix|52=20241012-15:42:34.630|571=100107|487=0|856=0|828=0|17=600107|570=N|55=Platinum|48=Platinum|32=1000|31=100|75=20241012|60=20241012-15:42:34.628|10=208|
8=FIX.5.0SP2|9=0000196|35=AE|49=accept-comp|56=init-comp|34=112|57=fix|52=20241012-15:42:34.631|571=100108|487=0|856=0|828=0|17=600108|570=N|55=Magnesium|48=Magnesium|32=1000|31=100|75=20241012|60=20241012-15:42:34.628|10=142|
8=FIX.5.0SP2|9=0000188|35=AE|49=accept-comp|56=init-comp|34=113|57=fix|52=20241012-15:42:34.632|571=100109|487=0|856=0|828=0|17=600109|570=N|55=Steel|48=Steel|32=1000|31=100|75=20241012|60=20241012-15:42:34.628|10=065|
8=FIX.5.0SP2|9=0000186|35=AE|49=accept-comp|56=init-comp|34=114|57=fix|52=20241012-15:42:39.627|571=100110|487=0|856=0|828=0|17=600110|570=N|55=Gold|48=Gold|32=1000|31=100|75=20241012|60=20241012-15:42:39.627|10=079|
8=FIX.5.0SP2|9=0000190|35=AE|49=accept-comp|56=init-comp|34=115|57=fix|52=20241012-15:42:39.627|571=100111|487=0|856=0|828=0|17=600111|570=N|55=Silver|48=Silver|32=1000|31=100|75=20241012|60=20241012-15:42:39.627|10=043|
8=FIX.5.0SP2|9=0000194|35=AE|49=accept-comp|56=init-comp|34=116|57=fix|52=20241012-15:42:39.628|571=100112|487=0|856=0|828=0|17=600112|570=N|55=Platinum|48=Platinum|32=1000|31=100|75=20241012|60=20241012-15:42:39.627|10=221|
8=FIX.5.0SP2|9=0000196|35=AE|49=accept-comp|56=init-comp|34=117|57=fix|52=20241012-15:42:39.629|571=100113|487=0|856=0|828=0|17=600113|570=N|55=Magnesium|48=Magnesium|32=1000|31=100|75=20241012|60=20241012-15:42:39.627|10=155|
8=FIX.5.0SP2|9=0000188|35=AE|49=accept-comp|56=init-comp|34=118|57=fix|52=20241012-15:42:39.629|571=100114|487=0|856=0|828=0|17=600114|570=N|55=Steel|48=Steel|32=1000|31=100|75=20241012|60=20241012-15:42:39.627|10=077|
8=FIX.5.0SP2|9=0000186|35=AE|49=accept-comp|56=init-comp|34=119|57=fix|52=20241012-15:42:39.630|571=100115|487=0|856=0|828=0|17=600115|570=N|55=Gold|48=Gold|32=1000|31=100|75=20241012|60=20241012-15:42:39.627|10=088|
8=FIX.5.0SP2|9=0000190|35=AE|49=accept-comp|56=init-comp|34=120|57=fix|52=20241012-15:42:39.630|571=100116|487=0|856=0|828=0|17=600116|570=N|55=Silver|48=Silver|32=1000|31=100|75=20241012|60=20241012-15:42:39.627|10=043|
8=FIX.5.0SP2|9=0000194|35=AE|49=accept-comp|56=init-comp|34=121|57=fix|52=20241012-15:42:39.631|571=100117|487=0|856=0|828=0|17=600117|570=N|55=Platinum|48=Platinum|32=1000|31=100|75=20241012|60=20241012-15:42:39.627|10=221|
8=FIX.5.0SP2|9=0000196|35=AE|49=accept-comp|56=init-comp|34=122|57=fix|52=20241012-15:42:42.297|571=100118|487=0|856=0|828=0|17=600118|570=N|55=Magnesium|48=Magnesium|32=1000|31=100|75=20241012|60=20241012-15:42:42.296|10=152|
