8=FIX.5.0SP2|9=0000117|35=A|49=init-comp|56=accept-comp|34=1|57=fix|52=20241011-16:13:02.421|98=0|108=30|141=Y|553=js-client|554=pwd-client|10=225|
8=FIX.5.0SP2|9=0000107|35=A|49=*|56=init-comp|34=1|57=fix|52=20241011-16:13:02.445|98=0|108=30|141=Y|553=js-server|554=pwd-server|10=244|
8=FIX.5.0SP2|9=0000094|35=0|49=*|56=init-comp|34=2|57=fix|52=20241011-16:13:32.023|112=heartbeat-10/11/2024 16:13:32|10=147|
8=FIX.5.0SP2|9=0000104|35=0|49=init-comp|56=accept-comp|34=2|57=fix|52=20241011-16:13:32.031|112=heartbeat-10/11/2024 16:13:32|10=172|
8=FIX.5.0SP2|9=0000094|35=0|49=*|56=init-comp|34=3|57=fix|52=20241011-16:14:02.031|112=heartbeat-10/11/2024 16:14:02|10=143|
8=FIX.5.0SP2|9=0000104|35=0|49=init-comp|56=accept-comp|34=3|57=fix|52=20241011-16:14:02.038|112=heartbeat-10/11/2024 16:14:02|10=176|
8=FIX.5.0SP2|9=0000094|35=0|49=*|56=init-comp|34=4|57=fix|52=20241011-16:14:32.039|112=heartbeat-10/11/2024 16:14:32|10=158|
8=FIX.5.0SP2|9=0000104|35=0|49=init-comp|56=accept-comp|34=4|57=fix|52=20241011-16:14:32.050|112=heartbeat-10/11/2024 16:14:32|10=177|
8=FIX.5.0SP2|9=0000094|35=0|49=*|56=init-comp|34=5|57=fix|52=20241011-16:15:02.059|112=heartbeat-10/11/2024 16:15:02|10=157|
8=FIX.5.0SP2|9=0000104|35=0|49=init-comp|56=accept-comp|34=5|57=fix|52=20241011-16:15:02.070|112=heartbeat-10/11/2024 16:15:02|10=176|
8=FIX.5.0SP2|9=0000094|35=0|49=*|56=init-comp|34=6|57=fix|52=20241011-16:15:32.065|112=heartbeat-10/11/2024 16:15:32|10=161|
8=FIX.5.0SP2|9=0000104|35=0|49=init-comp|56=accept-comp|34=6|57=fix|52=20241011-16:15:32.077|112=heartbeat-10/11/2024 16:15:32|10=190|
8=FIX.5.0SP2|9=0000104|35=0|49=init-comp|56=accept-comp|34=7|57=fix|52=20241011-16:16:02.087|112=heartbeat-10/11/2024 16:16:02|10=188|
8=FIX.5.0SP2|9=0000094|35=0|49=*|56=init-comp|34=7|57=fix|52=20241011-16:16:02.087|112=heartbeat-10/11/2024 16:16:02|10=162|
8=FIX.5.0SP2|9=0000094|35=0|49=*|56=init-comp|34=8|57=fix|52=20241011-16:16:32.045|112=heartbeat-10/11/2024 16:16:32|10=163|
8=FIX.5.0SP2|9=0000104|35=0|49=init-comp|56=accept-comp|34=8|57=fix|52=20241011-16:16:32.055|112=heartbeat-10/11/2024 16:16:32|10=190|
8=FIX.5.0SP2|9=0000094|35=0|49=*|56=init-comp|34=9|57=fix|52=20241011-16:17:02.047|112=heartbeat-10/11/2024 16:17:02|10=162|
8=FIX.5.0SP2|9=0000104|35=0|49=init-comp|56=accept-comp|34=9|57=fix|52=20241011-16:17:02.059|112=heartbeat-10/11/2024 16:17:02|10=191|
8=FIX.5.0SP2|9=0000095|35=0|49=*|56=init-comp|34=10|57=fix|52=20241011-16:17:32.025|112=heartbeat-10/11/2024 16:17:32|10=205|
8=FIX.5.0SP2|9=0000105|35=0|49=init-comp|56=accept-comp|34=10|57=fix|52=20241011-16:17:32.035|112=heartbeat-10/11/2024 16:17:32|10=232|
8=FIX.5.0SP2|9=0000095|35=0|49=*|56=init-comp|34=11|57=fix|52=20241011-16:18:02.072|112=heartbeat-10/11/2024 16:18:02|10=204|
8=FIX.5.0SP2|9=0000105|35=0|49=init-comp|56=accept-comp|34=11|57=fix|52=20241011-16:18:02.091|112=heartbeat-10/11/2024 16:18:02|10=231|
8=FIX.5.0SP2|9=0000105|35=0|49=init-comp|56=accept-comp|34=12|57=fix|52=20241011-16:18:32.080|112=heartbeat-10/11/2024 16:18:32|10=236|
8=FIX.5.0SP2|9=0000095|35=0|49=*|56=init-comp|34=12|57=fix|52=20241011-16:18:32.080|112=heartbeat-10/11/2024 16:18:32|10=210|
8=FIX.5.0SP2|9=0000095|35=0|49=*|56=init-comp|34=13|57=fix|52=20241011-16:19:02.066|112=heartbeat-10/11/2024 16:19:02|10=211|
8=FIX.5.0SP2|9=0000105|35=0|49=init-comp|56=accept-comp|34=13|57=fix|52=20241011-16:19:02.083|112=heartbeat-10/11/2024 16:19:02|10=236|
8=FIX.5.0SP2|9=0000095|35=0|49=*|56=init-comp|34=14|57=fix|52=20241011-16:19:32.052|112=heartbeat-10/11/2024 16:19:32|10=213|
8=FIX.5.0SP2|9=0000105|35=0|49=init-comp|56=accept-comp|34=14|57=fix|52=20241011-16:19:32.063|112=heartbeat-10/11/2024 16:19:32|10=241|
8=FIX.5.0SP2|9=0000095|35=0|49=*|56=init-comp|34=15|57=fix|52=20241011-16:20:02.020|112=heartbeat-10/11/2024 16:20:02|10=187|
8=FIX.5.0SP2|9=0000105|35=0|49=init-comp|56=accept-comp|34=15|57=fix|52=20241011-16:20:02.029|112=heartbeat-10/11/2024 16:20:02|10=222|
8=FIX.5.0SP2|9=0000095|35=0|49=*|56=init-comp|34=16|57=fix|52=20241011-16:20:32.026|112=heartbeat-10/11/2024 16:20:32|10=200|
8=FIX.5.0SP2|9=0000105|35=0|49=init-comp|56=accept-comp|34=16|57=fix|52=20241011-16:20:32.048|112=heartbeat-10/11/2024 16:20:32|10=230|
8=FIX.5.0SP2|9=0000095|35=0|49=*|56=init-comp|34=17|57=fix|52=20241011-16:21:02.020|112=heartbeat-10/11/2024 16:21:02|10=191|
8=FIX.5.0SP2|9=0000105|35=0|49=init-comp|56=accept-comp|34=17|57=fix|52=20241011-16:21:02.028|112=heartbeat-10/11/2024 16:21:02|10=225|
8=FIX.5.0SP2|9=0000095|35=0|49=*|56=init-comp|34=18|57=fix|52=20241011-16:21:32.094|112=heartbeat-10/11/2024 16:21:32|10=209|
8=FIX.5.0SP2|9=0000105|35=0|49=init-comp|56=accept-comp|34=18|57=fix|52=20241011-16:21:32.107|112=heartbeat-10/11/2024 16:21:32|10=230|
8=FIX.5.0SP2|9=0000095|35=0|49=*|56=init-comp|34=19|57=fix|52=20241011-16:22:02.038|112=heartbeat-10/11/2024 16:22:02|10=204|
8=FIX.5.0SP2|9=0000105|35=0|49=init-comp|56=accept-comp|34=19|57=fix|52=20241011-16:22:02.047|112=heartbeat-10/11/2024 16:22:02|10=230|
8=FIX.5.0SP2|9=0000105|35=0|49=init-comp|56=accept-comp|34=20|57=fix|52=20241011-16:22:32.003|112=heartbeat-10/11/2024 16:22:32|10=220|
8=FIX.5.0SP2|9=0000095|35=0|49=*|56=init-comp|34=20|57=fix|52=20241011-16:22:32.093|112=heartbeat-10/11/2024 16:22:32|10=203|
8=FIX.5.0SP2|9=0000095|35=0|49=*|56=init-comp|34=21|57=fix|52=20241011-16:23:02.057|112=heartbeat-10/11/2024 16:23:02|10=200|
8=FIX.5.0SP2|9=0000105|35=0|49=init-comp|56=accept-comp|34=21|57=fix|52=20241011-16:23:02.070|112=heartbeat-10/11/2024 16:23:02|10=221|
8=FIX.5.0SP2|9=0000095|35=0|49=*|56=init-comp|34=22|57=fix|52=20241011-16:23:32.017|112=heartbeat-10/11/2024 16:23:32|10=203|
8=FIX.5.0SP2|9=0000105|35=0|49=init-comp|56=accept-comp|34=22|57=fix|52=20241011-16:23:32.035|112=heartbeat-10/11/2024 16:23:32|10=229|
8=FIX.5.0SP2|9=0000095|35=0|49=*|56=init-comp|34=23|57=fix|52=20241011-16:24:02.024|112=heartbeat-10/11/2024 16:24:02|10=198|
8=FIX.5.0SP2|9=0000105|35=0|49=init-comp|56=accept-comp|34=23|57=fix|52=20241011-16:24:02.047|112=heartbeat-10/11/2024 16:24:02|10=229|
8=FIX.5.0SP2|9=0000105|35=0|49=init-comp|56=accept-comp|34=24|57=fix|52=20241011-16:24:32.005|112=heartbeat-10/11/2024 16:24:32|10=230|
8=FIX.5.0SP2|9=0000095|35=0|49=*|56=init-comp|34=24|57=fix|52=20241011-16:24:32.100|112=heartbeat-10/11/2024 16:24:32|10=200|
8=FIX.5.0SP2|9=0000095|35=0|49=*|56=init-comp|34=25|57=fix|52=20241011-16:25:02.060|112=heartbeat-10/11/2024 16:25:02|10=202|
8=FIX.5.0SP2|9=0000105|35=0|49=init-comp|56=accept-comp|34=25|57=fix|52=20241011-16:25:02.070|112=heartbeat-10/11/2024 16:25:02|10=229|
8=FIX.5.0SP2|9=0000095|35=0|49=*|56=init-comp|34=26|57=fix|52=20241011-16:25:32.008|112=heartbeat-10/11/2024 16:25:32|10=211|
8=FIX.5.0SP2|9=0000105|35=0|49=init-comp|56=accept-comp|34=26|57=fix|52=20241011-16:25:32.018|112=heartbeat-10/11/2024 16:25:32|10=238|
8=FIX.5.0SP2|9=0000105|35=0|49=init-comp|56=accept-comp|34=27|57=fix|52=20241011-16:26:02.073|112=heartbeat-10/11/2024 16:26:02|10=236|
8=FIX.5.0SP2|9=0000095|35=0|49=*|56=init-comp|34=27|57=fix|52=20241011-16:26:02.073|112=heartbeat-10/11/2024 16:26:02|10=210|
8=FIX.5.0SP2|9=0000095|35=0|49=*|56=init-comp|34=28|57=fix|52=20241011-16:26:32.073|112=heartbeat-10/11/2024 16:26:32|10=217|
8=FIX.5.0SP2|9=0000105|35=0|49=init-comp|56=accept-comp|34=28|57=fix|52=20241011-16:26:32.084|112=heartbeat-10/11/2024 16:26:32|10=245|
8=FIX.5.0SP2|9=0000095|35=0|49=*|56=init-comp|34=29|57=fix|52=20241011-16:27:02.058|112=heartbeat-10/11/2024 16:27:02|10=217|
8=FIX.5.0SP2|9=0000105|35=0|49=init-comp|56=accept-comp|34=29|57=fix|52=20241011-16:27:02.074|112=heartbeat-10/11/2024 16:27:02|10=241|
8=FIX.5.0SP2|9=0000095|35=0|49=*|56=init-comp|34=30|57=fix|52=20241011-16:27:32.006|112=heartbeat-10/11/2024 16:27:32|10=208|
8=FIX.5.0SP2|9=0000105|35=0|49=init-comp|56=accept-comp|34=30|57=fix|52=20241011-16:27:32.016|112=heartbeat-10/11/2024 16:27:32|10=235|
8=FIX.5.0SP2|9=0000095|35=0|49=*|56=init-comp|34=31|57=fix|52=20241011-16:28:02.051|112=heartbeat-10/11/2024 16:28:02|10=205|
8=FIX.5.0SP2|9=0000105|35=0|49=init-comp|56=accept-comp|34=31|57=fix|52=20241011-16:28:02.062|112=heartbeat-10/11/2024 16:28:02|10=233|
8=FIX.5.0SP2|9=0000095|35=0|49=*|56=init-comp|34=32|57=fix|52=20241011-16:28:32.044|112=heartbeat-10/11/2024 16:28:32|10=214|
8=FIX.5.0SP2|9=0000105|35=0|49=init-comp|56=accept-comp|34=32|57=fix|52=20241011-16:28:32.054|112=heartbeat-10/11/2024 16:28:32|10=241|
8=FIX.5.0SP2|9=0000095|35=0|49=*|56=init-comp|34=33|57=fix|52=20241011-16:29:02.018|112=heartbeat-10/11/2024 16:29:02|10=212|
8=FIX.5.0SP2|9=0000105|35=0|49=init-comp|56=accept-comp|34=33|57=fix|52=20241011-16:29:02.030|112=heartbeat-10/11/2024 16:29:02|10=232|
8=FIX.5.0SP2|9=0000095|35=0|49=*|56=init-comp|34=34|57=fix|52=20241011-16:29:32.061|112=heartbeat-10/11/2024 16:29:32|10=217|
8=FIX.5.0SP2|9=0000105|35=0|49=init-comp|56=accept-comp|34=34|57=fix|52=20241011-16:29:32.078|112=heartbeat-10/11/2024 16:29:32|10=251|
8=FIX.5.0SP2|9=0000095|35=0|49=*|56=init-comp|34=35|57=fix|52=20241011-16:30:02.004|112=heartbeat-10/11/2024 16:30:02|10=193|
8=FIX.5.0SP2|9=0000105|35=0|49=init-comp|56=accept-comp|34=35|57=fix|52=20241011-16:30:02.013|112=heartbeat-10/11/2024 16:30:02|10=219|
8=FIX.5.0SP2|9=0000095|35=0|49=*|56=init-comp|34=36|57=fix|52=20241011-16:30:32.031|112=heartbeat-10/11/2024 16:30:32|10=200|
8=FIX.5.0SP2|9=0000105|35=0|49=init-comp|56=accept-comp|34=36|57=fix|52=20241011-16:30:32.042|112=heartbeat-10/11/2024 16:30:32|10=228|
8=FIX.5.0SP2|9=0000095|35=0|49=*|56=init-comp|34=37|57=fix|52=20241011-16:31:02.031|112=heartbeat-10/11/2024 16:31:02|10=197|
8=FIX.5.0SP2|9=0000105|35=0|49=init-comp|56=accept-comp|34=37|57=fix|52=20241011-16:31:02.044|112=heartbeat-10/11/2024 16:31:02|10=227|
